:020000040800F2
:10000000C80B00200D400008D1370008D337000886
:1000100000000000000000000000000000000000E0
:10002000000000000000000000000000D5370008BC
:100030000000000000000000D7370008D937000892
:10004000A31F0008A71F0008AB1F0008FB1F000824
:10005000E13700085B320008F3340008CF370008AE
:1000600000000000E33700082F3800082B3E00088E
:10007000ED370008533E0008000000003B3F000839
:1000800000000000CF3F000800000000000000005A
:10009000DB3F000800000000254000082740000862
:1000A000294000082B4000082D400008F7370008C1
:1000B000053800082F400008000000000000000084
:1000C00038B5040014D0250078356868002803D1BD
:1000D0002870200000F084FE2420686020680168F9
:1000E000012291430160200000F082FA012801D131
:1000F000012032BD606A002802D0200000F07EFBA3
:1001000020684168084A0A404260206881682A22C3
:1001100091438160FFE72068016801220A43026081
:10012000200000F0D1FB32BDFFB7FFFF70B5040027
:1001300001D1012070BD2500783524206860206839
:100140000168012291430160002620680660206852
:10015000466020688660200000F0ADFEEE606E60B4
:10016000AE60266666662E70002070BD70B5802376
:10017000C358202B28D100290BD0130009D0836845
:1001800080246401A34206D10369002B03D1CB076D
:1001900001D5012070BD0023036603680B4CA34208
:1001A0000FD05B681B020CD5EFF31083012484F39E
:1001B0001088046825688026F6042E43266083F3A1
:1001C000108800F02BFC70BD022070BD004800407C
:1001D000F8B5040001200090EFF31080012181F3B5
:1001E000108821680A68464B13400B6080F3108822
:1001F000EFF31080012181F3108821688A680123C0
:100200009A438A6080F31088206E01280BD1EFF3A7
:100210001080012181F3108821680A6810239A4315
:100220000A6080F310882700603739690025802034
:10023000002907D022689268024002D0314A8A63BE
:1002400000E08D6379694026002907D02268926812
:10025000324002D02C4A8A6300E08D6321688968AD
:10026000084016D0EFF31080012181F31088216837
:100270008A6880239A438A6080F31088386900284E
:1002800007D000F035FF002802D03869856300E010
:10029000009520688068064015D0EFF3108001219A
:1002A00081F3108821688A6840239A438A6080F32A
:1002B00010887869002806D000F01AFF00281CD0AA
:1002C0007869856302E00098002816D0200052303B
:1002D000002101800181BD60FD607D620F202168E9
:1002E00008622068816908220A4382612020F8613F
:1002F00038623D60200000F0A8FF0020F2BD000041
:100300001FFEFFFF810B0008BB0B0008FEB50400B9
:100310002368D869194609689A6825005835202647
:100320000E4000962026064001960026AB4F07405F
:100330000BD1019F002F0CD0009F002F09D02969FD
:10034000002901D020008847F7BDD70702D4A44F69
:100350000F4078D0C70706D5CF0504D501271F6207
:10036000EB6A1F43EF62830708D5D30706D5022344
:1003700027683B62EB6A04271F43EF62042318429D
:1003800007D0D70705D527683B62EB6A02271F43D2
:10039000EF620823184209D0009F002F01D1D20735
:1003A00004D522681362EA6A1343EB6280221201C9
:1003B000104007D0480105D520680262E86A202174
:1003C0000143E962E86A002833D00198002807D089
:1003D0000098002804D02969002901D0200088470E
:1003E000E86A402721688968394002D12821014004
:1003F00024D0200000F082FB20688068074019D0DC
:10040000EFF31080012181F3108821688A6840236E
:100410009A438A6080F31088E86900280AD07149FD
:100420008163E86900F064FE002802D0E869816B0E
:100430008847F7BD200000F009FFF7BD200000F05D
:1004400005FFEE62F7BDAF68012F00D098E01027DE
:10045000384200D0394200D192E01F621020C043E0
:100460000121C9432268926852064CD5EA69136893
:100470005B689BB2002BE5D05827E75BBB42E1DA13
:100480006B8012681268920635D4EFF310820092E6
:10049000012282F3108822681368534F1F401760AF
:1004A000009A82F31088EFF31082012383F31088FF
:1004B00023689F683940996082F31088EFF31081B8
:1004C000012282F31088226893684027BB4393601F
:1004D00081F310882021A962AE60EFF31081012220
:1004E00082F31088226813681840106081F3108826
:1004F000E86900F0D8FD0220E8605820205A698899
:10050000411A89B238E05822A25A6B88D21A6B4637
:100510001A806A88002A60D06A461288002A5CD055
:10052000EFF310820192012282F31088226813688F
:100530002E4F1F401760019A82F31088EFF310824C
:10054000012383F3108823689F683940996082F300
:1005500010882021A962AE602E61EFF31081012284
:1005600082F31088226813681840106081F31088A5
:100570000220E86068460188200000F068FEF7BDB0
:1005800080277F03384206D0520204D51F62200024
:1005900000F05EFEF7BD8022104207D00A4005D071
:1005A0006969002919D020008847F7BD4022104012
:1005B00013D00A4011D0EFF31080012181F310888D
:1005C00021680A6840239A430A6080F3108820203B
:1005D00068626E61200000F03CFEF7BD0F0800006D
:1005E000200100046D0B0008FFFEFFFFDFFEFFFF90
:1005F000F8B5050000242B68186879490140A868FF
:1006000008432969014368690843E969014319609E
:10061000586874490140E86808435860A8697249FD
:100620008B4202D00100286A084399686F4A0A4049
:10063000104398606E488108802212026D4EB342CA
:1006400033D16D4EF66CB607B60F04D0022E6AD0C9
:100650006BD3032E63E001260096674B1026EF69EB
:100660009742009F00D08BE0002F0AD0012F7AD054
:10067000022F7BD0042F00D17DE0082F00D17DE038
:10068000A8E001F002F900282DD0696840004A086E
:10069000801801F027F901001039B74A9142EFD2D2
:1006A00002400007400F104384E0864EB34224D13D
:1006B000514EF66C0C27374033D0042F35D0082F1D
:1006C00031D00C2F33D01026474FBB42C4D1002E5F
:1006D00006D0022E2DD0042E31D0082E32D079E053
:1006E00001F0D3F8002876D06A6851008918884252
:1006F00070D31103814227D26CE03B4EB342E2D16A
:100700003D4EF76CC02636013E400AD05709BE4226
:100710000BD01709BE4206D0C0273F01BE4206D00B
:10072000D1E70026D0E70226CEE70426CCE708264C
:10073000CAE7314A1268D206D6D50800D4E701F0DC
:100740006BF8CFE71000CFE7070E06025008002134
:1007500080197941002301F0E0F888494118884A5E
:10076000914237D226E001F09BF88CE71A681640D8
:100770008BD0080089E701F04FF884E7100084E788
:10078000002F08D0012F18D0022F19D0042F1CD011
:10079000082F1DD01EE001F078F800281BD06968F2
:1007A0004A08801801F09EF801001039724A9142FF
:1007B00010D280B22968C8600DE001F071F8ECE752
:1007C0001A681640EBD00800E9E701F025F8E4E7E5
:1007D0001000E4E701240020A866E8662000F2BDCE
:1007E000F369FFEFFFCFFFFF00480040FFF4FFFF7A
:1007F0000024F40000380140001002402421415C34
:10080000C90706D501684A68AF4B1340826A1A438C
:100810004A602421415C890706D501684A68AB4BD0
:100820001340C26A1A434A602421415C490706D535
:1008300001684A68A64B1340026B1A434A602421A0
:10084000415C090706D501684A68A24B1340426B18
:100850001A434A602421415CC90606D501688A68AA
:100860009D4B1340826B1A438A602421415C8906A8
:1008700006D501688A68994B1340C26B1A438A6097
:100880002421415C490611D501684A68974B134001
:10089000026C1A434A60026C80235B039A4205D1C2
:1008A0004A68934B1340426C1A434A602421415CCE
:1008B000090606D501684A688E4B1340806C1843C0
:1008C0004860704700440040FEB5060037007837A6
:1008D0000024FC6001F07EF801902025306800685B
:1008E000000717D584480090019B0022290430009E
:1008F00000F048F800280DD0EFF31080012181F3BB
:10090000108831680A6880239A430A6080F310884F
:100910007D6026E030680068400725D57648009065
:10092000019B00226904300000F02CF800281BD045
:10093000EFF31080012181F3108831680A68874B3A
:1009400013400B6080F31088EFF31080012181F3D6
:10095000108831688A6801239A438A6080F310887E
:10096000BD603C700320FEBD7D60BD603466746672
:100970003C700020FEBD0000F0FF000000FDFFFF06
:1009800000FD0F00FEB580273F010824002506006A
:1009900001916846027002933068C0690199014074
:1009A0000198814201D1012000E0002069460978C8
:1009B000884231D108980021C9438842ECD001F027
:1009C00009F80299401A0899814201D3002901D1FE
:1009D0000320FEBD306800684007DDD53068C0697F
:1009E0002040306803D1C0693840D5D009E00462A6
:1009F000300000F083F830007830C46005700120CA
:100A0000FEBD30680762300000F078F830007830C2
:100A10002021C1600570DBE70020FEBD70B5416597
:100A2000010058310A804A8000230B618668FF2448
:100A300080225201964204D10569002D11D1484C03
:100A40000FE07F25002E03D10669002E06D108E0B5
:100A50001404A64207D10469002C01D18D8003E063
:100A60003F248C8000E08B80CB6222238B62EFF3EB
:100A70001083012484F310880468A56801262E439E
:100A8000A66083F31088836893420DD10269002A1F
:100A90000AD1344A0A61EFF31081012282F31088EF
:100AA0000068026820231BE02F4A0A6101690029BF
:100AB000F1D0EFF31081012282F310880068026800
:100AC00090235B00EFE70000FFFFFDFFFFFFFEFF4D
:100AD000FFFFFBFFFF7FFFFFFFEFFFFFFFDFFFFFDA
:100AE0001343036081F31088002070BDFFFFEFFF08
:100AF000FFFF9FFFFFFFF7FFFFFFFF0110B5EFF3C1
:100B00001081012282F3108802681368134C1C4084
:100B1000146081F31088EFF31081012282F31088B2
:100B2000026893680124A343936081F31088016EE7
:100B300001290BD1EFF31081012282F310880268A2
:100B400013681024A343136081F3108820218022AE
:100B5000815000210166816610BD0000DFFEFFFFAD
:100B6000FF010000A30C0008FF0B000880B5806A9D
:100B70000100523100220A810A8000F067FB01BDAA
:100B800010B5806A0100603100220B699A634B69DD
:100B9000002B02D09B6B002B0ED10300523300249C
:100BA0001C801C814A620F23046823622023CB61CE
:100BB0000B620A6000F049FB10BD38B5806A010085
:100BC000603100224B699A630B69002B02D09B6B4A
:100BD000002B13D10300523300241C801C814A6275
:100BE0000F230468236203689C69082525439D61DF
:100BF0002023CB610B620A6000F027FB31BD70B58A
:100C00000100583102688B6A222B44D1526A8B88CA
:100C10001340426D1370426D521C42654A88521E49
:100C20004A804A88002A3AD1EFF31082012383F3E5
:100C3000108803681C68444D25401D6082F31088AD
:100C4000EFF31082012383F3108803689C68012569
:100C5000AC439C6082F3108820228A6200220A61E1
:100C6000CA600368394CA3420ED05B681B020BD5E7
:100C7000EFF31083012484F3108804682568344E50
:100C80002E40266083F310888B68012B00D161E031
:100C900000F0A6FE70BD906908210143916170BD0E
:100CA000000070B50100583102688B6A222B44D1D4
:100CB000526A8B881340426D1380426D921C4265CC
:100CC0004A88521E4A804A88002A3AD1EFF310829D
:100CD000012383F3108803681C681B4D25401D60A9
:100CE00082F31088EFF31082012383F310880368E6
:100CF0009C680125AC439C6082F3108820228A62A4
:100D000000220A61CA600368104CA3420ED05B68DF
:100D10001B020BD5EFF31083012484F310880468C1
:100D200025680B4E2E40266083F310888B68012BBC
:100D300000D10FE000F054FE70BD9069082101431E
:100D4000916170BD00000000DFFEFFFF0048004021
:100D5000FFFFFFFB8A60EFF31081012282F310880E
:100D6000026813681024A343136081F3108801689C
:100D70001022CB69134000D00A625821415A00F07A
:100D800066FA70BD80B562486249016096218901AA
:100D9000416000218160C16001610C22426181617A
:100DA00015E080B55C485D4901609621890105E048
:100DB00080B55B485B490160E12149024160002147
:100DC0008160C16001610C2242618161C161016287
:100DD0004162FFF775F9002801D000F0F5FE01BD72
:100DE000F8B586B0040014220021684600F0EEFE3B
:100DF00025680320042102224B4B0024454EB542B6
:100E000015D1DD680E042E43DE601D680D431D60A4
:100E10001B68194005910599810200910192029485
:100E2000039004946946414800F0DAFE41E001264F
:100E30003A4FBD421CD19D680F032F439F601D6830
:100E400035431D601B681E400596059B43020093B9
:100E500001920294039004916946A020C00500F01D
:100E6000BFFE002200211B2001F027F81B201EE0FE
:100E70002C4FBD421DD1DD68CF032F43DF601D68BD
:100E800035431D601B681E400596059B0C2300938F
:100E900001920294039004916946A020C00500F0DD
:100EA0009FFE002200211C2001F007F81C2001F009
:100EB00008F807B0F0BD80B502681D4915488242A8
:100EC00009D148681B4A02404A60C02109011748FD
:100ED00000F050FF01BDA020C005104B9A4209D17F
:100EE0000A68154B13400B60C021C90000F042FF97
:100EF0001B200AE00B4B9A4209D14A680F4B134062
:100F00004B600C2100F036FF1C2000F0E3FF01BD18
:100F10007C04002000480040040500200038014007
:100F20008C050020004400402C10024000080050B6
:100F300034100240FFFFFBFFFFBFFFFFFFFFFDFF7D
:100F400070B5040001D1012070BD206836494018F9
:100F5000142100F0C7FC8000606434482064022043
:100F6000252160542068006831490140A068084389
:100F7000E16801432069084361690143A0690843AE
:100F8000E1690143206A084321680860A068802164
:100F9000C901884210D027481C2102680F23656CC4
:100FA0001C262E40B3409A43026002686368656C59
:100FB00029408B40134303600020E0630121252278
:100FC000A1542421605470BD70B5040001D10120EA
:100FD00070BD2068016801229143016020681249B8
:100FE0004018142100F07EFC800060640F482064EB
:100FF0000020216808601C210122636C0B409A408C
:10100000236C5A600B4A13680F25666C31408D4083
:10101000AB431360E06220636063A063E06325225A
:10102000A0542421605470BDF8FFFDBF00000240B1
:101030000F80FFFFA8000240F8B504000020002543
:101040002426A65D012E01D10220F2BD012624270F
:10105000E65502262527E75D012F1FD12527E655F6
:10106000E063206806680127BE430660200000F0A8
:10107000D8F82068216B0029016801D00E2205E014
:10108000042291430160206801680A220A43026039
:101090002068016801220A43026002E024216054B2
:1010A00002252800F2BD30B501002431002225239D
:1010B000C35C022B04D00423C3630A70012030BD3B
:1010C00003681C680E25AC431C6003681C6801257E
:1010D000AC431C6001234424045D1C2525400124ED
:1010E000AC40056C6C60252403550A70002030BDAF
:1010F00070B50022002401212523C35C022B03D0FC
:101100000422C263012418E003681D680E26B5435B
:101110001D6003681D688D431D604423C35C1C254E
:101120001D400123AB40056C6B602523C154242175
:101130004254816B002900D08847200070BDFEB565
:10114000016C0968029101680A6801924422825C7C
:101150001C2313406A46137004232022029C6D4610
:101160002D780426AE40264014D0019C1C4011D09E
:101170000C68224002D10A689A430A604421415C0B
:101180001C220A409340016C4B60016B002947D040
:101190008847F7BD012302240025029EB4466E460F
:1011A00036780227B7406646374019D0019E264060
:1011B00016D00E68324005D10A680A26B2430A608A
:1011C000252143544421415C1C220A409440016C77
:1011D0004C6024214554C16A002921D08847F7BDBD
:1011E000082264466E4636780827B740274017D055
:1011F000019C224014D00A680E24A2430A604421B4
:10120000415C1C220A4001219140026C5160C36381
:101210002521435424214554416B002900D088479F
:10122000F7BD70B501244425455D1C262E40B44011
:10123000056C6C60046863608068102802D1A2604D
:10124000E16070BDA160E26070BD7047704770479B
:1012500070477047FEB5060058D0B74CE0680C21C7
:1012600001400091E06880214902084001903078F7
:10127000C0070ED54F000098082804D00C286AD16A
:101280000198884267D12068074002D07068002822
:101290003CD0307880072BD5F068BB4F0921C9437B
:1012A000009A042A05D00C2A01D1019A002A00D004
:1012B0008CE02268520701D5002827D062681740C9
:1012C000326912023A43626022681140084320608A
:1012D00000F0A2FAAD49E2681206120F895CC8401C
:1012E000BC490860BC48006800F020FE010031D114
:1012F000A70D3078C00600D4B4E00098002800D0D4
:1013000091E02068800503D5B069002800D1A4E1F0
:101310006068B2490140306A08436060606800025A
:10132000000AF1690906014361600120316A490B35
:10133000491C8840C0039549E2681206120F895C77
:10134000C840A4490860A448006800F0EFFD01000F
:1013500000D187E0FEBD7068884201D1206809E0B5
:10136000A021C9028842206806D17900014321608A
:101370002068790801430AE0BA49014021602068E9
:1013800079080840029002982068B749014021601E
:10139000706800280DD000F01DFB05002068384063
:1013A00000D076E700F016FB401B6528F6D303203B
:1013B000FEBD00F00FFB05002068384000D168E753
:1013C00000F008FB401B6528F6D3F0E704220192E9
:1013D000002817D0226811400843206000F0FAFA74
:1013E000050020680199014005D100F0F3FA401B87
:1013F0000228F6D9DBE7606807403069000238430D
:10140000606075E7206801218843206000F0E2FAFF
:101410000500206801990140F3D000F0DBFA401B81
:101420000228F6D9C3E7B0690028206830D03843D5
:10143000206000F0CFFA05002068800505D400F098
:10144000C9FA401B0228F7D9B1E760686349014037
:10145000306A0843606060680002000AF1690906AA
:10146000014361603078000730D570690028206D35
:101470001DD001210143216500F0ACFA0500206D6B
:10148000800723D400F0A6FA401B0228F7D98EE784
:1014900076490140216000F09DFA05002068800532
:1014A000E0D500F097FA401B0228F7D97FE7012129
:1014B0008843206500F08EFA0500206D800705D571
:1014C00000F088FA401B0228F7D970E7307840070F
:1014D00065D5002001903805A16B014004D1A16BB6
:1014E0000843A0630120019061480068384011D191
:1014F0005F48006838435E49086000F06BFA0500F9
:101500005B480068384005D100F064FA401B65284C
:10151000F6D34CE7B168B9420AD0564800290DD03D
:10152000A022D200914209D1206D210D01432165F5
:10153000206D0743276508E000100240216D4B4AEB
:101540000A402265216D08402065670DB0680028BB
:101550000CD000F03FFA0500206D384018D100F0A3
:1015600039FA401BA8498842F6D320E700F032FA46
:101570000500206D38400BD000F02CFA401BA2492A
:101580008842F6D313E700BFFFE0FFFF883F000863
:101590000198002803D0A06B9C490140A163706AA8
:1015A00000285CD000990C2942D08027BF049849BC
:1015B000022820682ED10140216000F00BFA0500BE
:1015C000206838400CD000F005FA401B0228F7D9FB
:1015D000EDE600BF200000201C000020FF1FFFFFE1
:1015E000E0688C490140B06A0843F16A0143306BFE
:1015F0000843E060206879080143216000F0EAF9BF
:101600000500206838402AD100F0E4F9401B022888
:10161000F7D9CCE60140216000F0DCF90500206834
:1016200038401CD000F0D6F9401B0228F7D9BEE69E
:10163000012812D0E068802149020140B26A91423B
:101640000BD1F02189030140F26A914205D1C021FA
:1016500009040140306B814201D00120FEBD002011
:10166000FEBD00BFFFFFFEFFFFFFFBFFFFFEFFFF12
:1016700000700040FFFBFFFFF1B582B000285CD096
:101680000091614F85480068C107C90F00988142E9
:1016900017D2824C206801218843009901432160C0
:1016A00000F098F9009D06002068C107C90FA94203
:1016B00006D000F08FF9801BB842F5D30320FEBDA1
:1016C00000957C4C02980078800706D5E068F021F0
:1016D0008843029989680143E1603E460298007898
:1016E000C0074DD502984068022819D121688903A6
:1016F00023D5E168032291430843E06000F06AF9D2
:101700000700029840680C25022818D1E06828409C
:10171000082835D000F05EF9C01BB042F6D3CDE703
:10172000032802D12168890103E00128216802D140
:101730004907DED401E08905DBD40120FEBD032882
:1017400009D1E06828400C281AD000F043F9C01BEA
:10175000B042F6D3B2E7012809D1E0682840042856
:101760000ED000F037F9C01BB042F6D3A6E7E06810
:10177000284005D000F02EF9C01BB0429ED2F6E7FB
:10178000009846490968CA07D20F904215D2434DC6
:1017900028680121884300990143296000F01AF963
:1017A00007002868C107C90F0098814205D000F0E2
:1017B00011F9C01BB042F4D380E7029800784007CB
:1017C00006D5E0683C4901400298C0680843E060E3
:1017D00002980078000707D5E06838490140029870
:1017E0000069C0000843E06000F016F83449E26880
:1017F0001206120F895CC8403249086032480068FE
:1018000000F094FBFEBD000089130000FFFFFFEF16
:10181000FFFFFFFEFFFF02FF50B5264AD1681023ED
:101820000C200840042804D0082809D00C2809D02E
:1018300023E01068034001D0254850BD254850BD25
:10184000254850BD25488C02240F005D09028C0FED
:10185000641C0021D668F60301D51F4A03E0126814
:10186000134002D01A4A002300E01A4A00F080FB1D
:101870002200002300F051F850BD506801210004FF
:10188000400F401C8140C80350BD0E4800681449F9
:101890000E4A1268520509E00000000000200240D4
:1018A000084800680E49094A12689204520F895C80
:1018B000C840704700100240FFF8FFFFFFC7FFFF5E
:1018C000883F0008200000201C0000200C1002406F
:1018D00000093D000024F40000127A00983F00083F
:1018E0001C400008094214D088420FD30122030C87
:1018F00001D100041204002300185B418B4200D385
:101900005B1A5241F8D31900100070470100002003
:10191000704708B500F046FB08BD12422DD0994231
:1019200031D970B500251B4209D00C00002112E00E
:101930001100FFF7D7FF0A000021002370BD094204
:10194000F6D00024012649186441944200D3A41A19
:101950007641F8D33100012601E0764109D2001822
:1019600064416D41A41A9D41F7D2A4185D41B61996
:10197000F5D3300022002B0070BD1B42CFD108B53B
:1019800000F012FB08BD01D19042CAD202000B0048
:1019900000210020704730B5016841184468620892
:1019A0008A188368E40704D54C461B1901E0641CBF
:1019B00009D1914203D00C7864B2491C01E00C308B
:1019C00030BD0D78491C1D705B1C002CEFD4641ECB
:1019D000F7D5EEE701484068704700BF14000020CB
:1019E00080B58022D200414941480068FEF7BEFB25
:1019F00001BD80B501003E48102200F0D7FA012059
:101A000000F042F8012002BD70B5394C207C00285E
:101A100020D026685A20305A344D5821715A081A5D
:101A200080B203280BDDA87869782A78521812183A
:101A3000D2B2EB789A4202D10902084360613000C9
:101A4000FEF7C6FB8022D20029003000FEF78EFB95
:101A500000202074606970BD70B5254D2E68306817
:101A60001F24C16921400ED0C069C00605D4802260
:101A7000D2001E493000FEF779FB3068016A0C4342
:101A800004620120287470BD10B50100184C606814
:101A9000A368227B01291ED199B200F0DDF92468E8
:101AA0002000FEF743FBFFF77CF9642000F0A6FA64
:101AB00020680021C9430162816801220A438260D3
:101AC000016810220A4302608022D20007492000E8
:101AD000FEF74CFB10BD521E9241D20F99B200F09E
:101AE000BBF92068FEF722FB10BD00007C0000203F
:101AF0007407002080B500F095FA00F014F800F0AB
:101B0000A5FA00F021FBFFF74CF900F033FBFFF7DB
:101B100039F9FFF74DF900F081FB284800F048FC47
:101B200000F07AFCFCE718B599B034210CA800F05D
:101B3000B3FC1421684600F0AFFC1C2105A800F09E
:101B4000ABFC1F4801681F4A0A40C10C11430160E9
:101B50000A200C9001200F9010211091119002206A
:101B600015900024169440041790000118900CA8BA
:101B7000FFF770FB002801D000F026F80F2000903E
:101B80000320019002940394049401216846FFF716
:101B900073FD002801D000F017F827200590079466
:101BA0000894099480208002069005A800F07CFC2F
:101BB000002801D000F008F81AB010BD0000002085
:101BC00000700040FFE7FFFF72B6FEE710B50400AB
:101BD000080011000200200000F060FC200010BD91
:101BE000FFB500220F2302932DE0062403E09D4C55
:101BF000A042FAD105246D462D78AC403443019DB6
:101C00002C60994CA668DC4326404D68ED0200D557
:101C10001E43954DAE60EE6826404F68BF0200D56A
:101C20001E43EE606E6826404F68BF0300D51E431A
:101C30006E602E6834404E68F60302D526001C0004
:101C400034432C60521C0B681C00D44000D190E03F
:101C5000012494402340F5D055000327AF40FE43B4
:101C600001964E68B707BF0F012F03D0B607B60F16
:101C7000022E0ED18768019E3E40CF68AF403743A9
:101C800087604668A6434C68E706FF0F97403743D6
:101C9000476094006E4674700C79A407A40F032C5F
:101CA00026D0C468019E26408C68AC403443C46092
:101CB0000C79A407A40F022C1AD1D408A40004198B
:101CC000266A03966E4677781C263E406F463E7025
:101CD000039EB446029F6E463678B7406646BE43C2
:101CE000B4460F696E463678B7406646374327627A
:101CF00007680324019E3E404F682740BC462F00E2
:101D00006546BD40354305604D6826042E4099D098
:101D10000125564E36682E43544F3E60544E970868
:101D2000BF00F6190196019E366803966E467778D5
:101D30000C263E406F463E70039EB446029F6E46A0
:101D40003678B7406646BE43A027FF05B84201D1AA
:101D5000002450E7474FB84201D101244BE7464DDC
:101D6000A84201D1022446E7444DA84200D03EE7F4
:101D700041E7FFBDFFB503230293012301930391C4
:101D800000213EE0062703E0364DA842FAD10527A0
:101D90008D00B4460C262E40B740BC4515D1D64325
:101DA000314A12683240304F3A603A465268324007
:101DB0007A603A46D2683240FA603A4692681640F3
:101DC0003A4696601A68A2431A60029A4B009A40FB
:101DD000036813430360CB089B00C3181C6A0F26DB
:101DE0001C272F40BE40B4431C62D343C2681A4034
:101DF000C2604268009CA2434260826813408360D4
:101E0000491C039ACA4026D0019A8A400092039B3B
:101E1000009A1A40F4D0164B8C08A4001B191E68B7
:101E20000F248D000C272F40BC402640A025ED0537
:101E3000A84201D10027ABE70E4DA84201D1019F76
:101E4000A6E70D4DA84201D10227A1E70B4DA842FC
:101E50009AD1029F9CE7FFBD002A01D081617047A3
:101E600081627047001C00500004014034100240A1
:101E7000080001400004005000080050000C005011
:101E800010B5C20018231340FF249C40E243890789
:101E9000090E9940030004D41F489B089B00C018FA
:101EA00006E01E4B0007000F083880088000181855
:101EB00003681A401143016010BD80B5FFF7E0FFD1
:101EC00001BD010005D40121C006C00E81401448A7
:101ED00001607047010009D40121C006C00E814095
:101EE00010480160BFF34F8FBFF36F8F704710B57D
:101EF000401E80214904884201D3012010BD0A4CB4
:101F0000606003210020C043FFF7BAFF0020A060FB
:101F10000721216010BD000000E400E01CED00E09E
:101F200000E100E080E100E010E000E038B50500ED
:101F30000D4CFA2080002178FFF7D4FC01000B48FB
:101F40000068FFF7CFFCFFF7D2FF00280AD1042D6D
:101F500008D2002229000020C043FFF7AEFFA56091
:101F6000002032BD012032BD1400002020000020DE
:101F700030B4434351435D18010C0C00130C5C4317
:101F80002D1980B2434392B251430024C9186441D1
:101F900024040B04090C09195043C018694130BCD2
:101FA0007047FEE77047FEE77047FEE770B4103AEF
:101FB00003D378C9103A78C0FBD2530701D318C9AC
:101FC00018C001D508C908C0D20704D30B88038004
:101FD000891C801C002A01D50B78037070BC7047E7
:101FE0008B0701D18307E1D0124205D00B78491C41
:101FF0000370401C521EF9D17047FEE738B505004A
:10200000FFF7E8FC04000020C043854202D00448EA
:1020100000782D18FFF7DEFC001BA842FAD331BD73
:102020001400002010B500240748016840220A432C
:1020300002600320FFF77AFF002801D0012401E0AD
:1020400000F0FCFA200010BD00200240F8B586B078
:10205000142200216846FFF7B9FD042136480268C2
:102060000A430260026811400591059980260168C3
:1020700031430160016831400591059901240168EF
:102080002143016001682140059105990221026800
:102090000A4302600068014005910598274D00221F
:1020A00029002748FFF7D8FE0022B8214900A020C8
:1020B000C005FFF7D1FEE027FF01002239002148CB
:1020C000FFF7CAFE00950194002502950395694625
:1020D0001B48FFF785FD70200090019402950320B6
:1020E00003906946A020C005FFF77AFD0097019490
:1020F0000295039569461348FFF772FD2002009090
:102100000194029503956946A020C005FFF768FD7C
:1021100040200090882040030190029569460948BC
:10212000FFF75EFD00960195029569460548FFF7A9
:1021300057FD07B0F0BD00BF2C10024001020000A7
:10214000000800500004005080B5012008490A68CA
:1021500002430A60096808400090009800220121AB
:102160000920FFF7AAFE0920FFF7ABFE01BD00BF63
:102170003010024038B586B01422002101A8FFF7C4
:1021800025FD042200216846FFF720FD204C214850
:102190002060002565607F20A060FF20E060256151
:1021A0006561A561E561200000F05EFA002801D0BC
:1021B000FFF70AFD01A805808570049505950122A9
:1021C00001A9200000F0A3FA002801D0FFF7FCFCD1
:1021D000684601210170082141702121817023216D
:1021E000C17001226946200000F0EEFA002801D0FB
:1021F000FFF7EAFC07B030BD00680649884205D108
:10220000054801688022D2020A430260704700003C
:102210003807002000280040501002403EB5082238
:1022200000216846FFF7D2FC554C5648206000203C
:10223000E0638021C9056160A0600621A1630121DE
:102240002161E0602023E1542123E054A062FF22B9
:10225000C23262622C22A154042161618D02256385
:10226000A0616063E061200000F066FB002801D0FF
:10227000FFF7AAFC4448009001956946200000F051
:1022800091FD002801D0FFF79FFC4048009069466F
:10229000200000F087FD002801D0FFF795FC3C48A6
:1022A00000906946200000F07DFD002801D0FFF776
:1022B0008BFC384800906946200000F073FD002830
:1022C00001D0FFF781FC37BD70B586B00400142241
:1022D000002101A8FFF77AFC20682A49884236D1FC
:1022E0002D488168420D0A438260042102680A4336
:1022F00002600068014000910098322001900320A4
:1023000002900025039501A92448FFF769FC244E9B
:10231000244830607560B560F560802030618030A1
:1023200070618000B0612020F06135623000FEF7FE
:1023300007FE002801D0FFF747FCE664B4620022E4
:1023400001210C20FFF7B9FD0C20FFF7BAFD06B004
:1023500070BD10B5040020680A4988420ED11248A9
:102360000168124A0A40026032210C48FFF702FD60
:10237000E06CFEF729FE0C20FFF7ACFD10BD00005D
:1023800094060020002401400008002C0040003882
:102390000080003C000002442C1002400008005065
:1023A000F00600200800024034100240FFFDFFFF4D
:1023B00010B50100354C20001422FFF7F7FD012273
:1023C000A06881B22068FFF747FD0122E06881B272
:1023D0006068FFF741FD2000143000F035FE20005A
:1023E000283000F03FFE20003C3000F04BFE012082
:1023F00000F063FE2000543000F0B0FE012000F039
:1024000077FE20002C30FFF7F4FA012000F033FFB4
:10241000012000F09DFF10BD38B5FFF7DBFA184C26
:10242000FFF7F2FAE060200000F0A1FE208800F043
:1024300031FFA060134800884100081800F0A4FF95
:102440000500E08800F090FF0100280000F0A7FFE1
:1024500005006088A188401A80B200F085FF29003D
:1024600000F0EFFF01F046F80022074B01F05BF8A7
:1024700007A20CCA01F0B8F801F078F9206131BD6B
:102480008C0700207800F81F00FEAF4024000020D9
:10249000000000A099990940002200BF094202D023
:1024A000491E4254FCD17047FEB504000020019043
:1024B000584D207880067DD580204005A96B0140CD
:1024C00004D1A96B0843A86301200190AF0D5248C5
:1024D0000068384013D15048009000683843009994
:1024E0000860FFF777FA060000980068384006D1C8
:1024F000FFF770FA801B6528F6D30320FEBD29681C
:102500006068C02292030A40C021890301408A42C8
:102510000BD0C02189020140C0229202914204D115
:102520002968890301D50120FEBD2A6DC0218902D9
:10253000114022D0C0229202024091421DD0207848
:10254000800630D5296D35480840296DFA020A43C6
:102550002A65296D324A0A402A65286507400CD051
:10256000FFF738FA0600286D800506D4FFF732FA27
:10257000801B2C498842F6D3BFE72078800612D50D
:102580006168C020800202000A40824206D12A68A7
:10259000254B134002010A401A432A60296D6268E4
:1025A0001040084328650198002803D0A86B1F49F4
:1025B0000140A9632078C00705D5E86C0321884352
:1025C000A1680143E9642078800705D5E86C0C21F7
:1025D0008843E1680143E9642078400705D5E86C49
:1025E0001349014020690843E8642078000705D5B5
:1025F000E86C1049014060690843E86420780006EF
:1026000005D5E86C0C490140A0690843E864002046
:10261000FEBD00000010024000700040FFFFFCFF04
:10262000FFFFF7FF89130000FFFFCFFFFFFFFFEF62
:10263000FFF3FFFFFFCFFFFFFFFFF3FF80B5094868
:10264000016801220A4302604168802252050A4360
:102650004260002200210420FFF72FFC0420FFF736
:1026600030FC01BD3410024038B5050001D1012015
:1026700032BD00242120285C002804D120216C5484
:102680002800FFF7B9FD0220212168542868C1689D
:10269000C90637D4CA2141625320296848622800FC
:1026A00000F000F9010019D1286881686E4A0A40DB
:1026B0008260286881686A680A4329691143AA69A7
:1026C0000A438260E8682968086128680169AA6885
:1026D00012040A430261280000F00CF901000BD13A
:1026E0002968CA6C03239A43CA642968CA6CEB69D7
:1026F00013436A691A43CA64FF212A6851620100C0
:1027000004D100E0002001212122A95432BDF8B5F6
:1027100004002020205C012801D10220F2BD01200C
:102720002023E05402202123E05423684020002786
:102730000D00002A996811D1084000D1EF70287867
:1027400000F0EFF80604687800F0EBF80002304380
:102750000600A87800F0E5F8304309E0084000D111
:10276000EF7028780004697809020143A8780843CB
:10277000E9788E050643CA20216848625320216803
:102780004862200000F08EF8010012D13748304036
:102790002168086020688168354A0A4082602068A4
:1027A0008168EA680A43296911438160200000F0CA
:1027B000A1F8010002D101212122A154FF212268A8
:1027C000516220216754F2BDF8B504002020205C3E
:1027D000012801D10220F2BD0F00012520216554FE
:1027E0000220212160547878002A33D1C10603D514
:1027F000EF2101400A317970F87800F092F8060470
:10280000787800F08EF8000230430600B87800F0C7
:1028100088F8304339784E030643CA20216848625D
:10282000532021684862200000F03CF8010006D1E6
:102830001048304021684860200000F05BF801003B
:1028400001D121216554FF212268516200212022FB
:10285000A154F2BDF978090400020843B978014394
:10286000387846030E43D8E7BFFF8FFF7F7F7F0096
:10287000FFFFFBFF3FFFFF0038B504001B48216846
:10288000C860FFF7A7F805002068C068800607D475
:10289000FFF7A0F8401B16498842F5D3032032BD4C
:1028A000002032BDF8B50400002520684027C1682B
:1028B000394017D1C16880220A43C260FFF78AF805
:1028C000060009E0FFF786F8801B0949884203D318
:1028D00004202121605401252068C068384001D1BE
:1028E0002800EFD02800F2BD000000005F7F01004B
:1028F000E903000038B5040000252068C168802283
:102900009143C16020688068800608D42000FFF7EA
:10291000B3FF002803D004202121605401252800A2
:1029200032BD002101E0491CF630C2B20A2AFAD2B7
:1029300009010843C0B27047F8B5040016D025005D
:10294000503500266868002804D1AE602E70200043
:10295000FFF7BAFC10206968014003D121688A683A
:10296000520705D56968084368602E700120F2BDE2
:102970006868864A024002201043686084488A687A
:102980009207920F012A03D10A461268D2072AD46D
:102990006268804BC0273F06BA4206D05F1CBA422D
:1029A00003D080273F06BA4208D10A6913400B6161
:1029B00021680A69636813430B610AE00A691340DE
:1029C0000B610168744A0A400260016862680A4348
:1029D00002602168CA6818239A43CA602168CA68DD
:1029E000A3681343CB6001686C4A0A400260016827
:1029F000626B52060A4302602068802149058268A2
:102A00000A4002D18268114381602068C168644A2B
:102A10000A40C2602069022801D1042100E000219F
:102A20002068C268E368134319432022A25C520362
:102A30000A432C21615C49001143226B0A43A169BE
:102A400089031143E269D2030A43C260606AFF212D
:102A5000C231884205D02168CA681043A26A024385
:102A6000CA6001202121615C012910D12021615C13
:102A7000002905D12168CA6803041343CB6006E02E
:102A8000696820220A436A60A9680143A960E16B72
:102A9000012921680A690FD1424B13400B6121685B
:102AA0000A69236C1343626C1A43A36C13430B61D2
:102AB00021680A69024303E0024002D00A698243A6
:102AC0000A6121684A6907239A434A6121684A6971
:102AD000A36B13434B61AE606968022291430843C4
:102AE00068600020F2BDF8B5040001D10120F2BDFC
:102AF000270050377868022101437960200000F0F8
:102B00000DFA05000026280008D1200000F0D2F9B7
:102B10000500012836D00120786001E0012D31D078
:102B200020684168204A0A404260204821680860C5
:102B3000206881681E4A0A4082602068C1681D4A78
:102B40000A40C260206801691B4A0A40026120688D
:102B500041690722914341612068016A174A0A408E
:102B600002622168B4317F20C0430A6802400A60D3
:102B70002168B4310A68104008602000FFF7E9FBC3
:102B8000BE607E603E702800F2BD0000FFFEFFFFC9
:102B900008270140FFFFFF3FFFFFC3FFFFFFFFFDCF
:102BA0001902FEFF03FCFFFF60F7FFFF9F08000014
:102BB000FFFFFFEF00023E8302FCFF3F00F000F04A
:102BC000F2B505001700002600242868816849072F
:102BD0003CD45021695C012901D10220F2BD0121C0
:102BE0005023E954C2681143C160E869012804D048
:102BF000280000F031F9040029D13B00009A280098
:102C0000503047689049394080277F000F43476024
:102C1000866006708D48E96CC8628D48E96C08636F
:102C20008C48E96C48631C20296808602868416862
:102C300010260E43466029684031E86CFEF7FCF927
:102C40002868816804220A43826000E00224200090
:102C5000F2BDF8B504005020205C012801D102200B
:102C6000F2BD2700503701253D70200000F056F9D5
:102C7000060021D12068C168A943C160E06C25210C
:102C8000415C022907D1FEF70EFA060003D07868EE
:102C900040210143796020684168102291434160DE
:102CA00030000DD1200000F005F9060004D178684D
:102CB000054901400D437D60002038703000F2BDB1
:102CC000200000F0F7F8F7E7FFFEFFFFF8B504007B
:102CD000206805684768082208202840102604213B
:102CE0000D4201D00F4203D1002836D03A4034D0F3
:102CF000626D324003D1626DCB011343636522687C
:102D0000D268C0231B0113401ED12022A25C002ADE
:102D10001AD1002818D02068806801400CD12068A2
:102D200040680C21884321684860606D604901401B
:102D300001200843606507E0606D20210143616563
:102D4000A06D01210143A165200000F069FDA0698B
:102D5000012802D00C202168086028060BD538060F
:102D600009D5606D310301436165200000F05CFD11
:102D7000802021680860354013D0374011D0206B87
:102D8000002803D02068C068C00708D5A06D0221C4
:102D90000143A16520680660200000F046FD206820
:102DA0000660F1BDFEB55022825C012A01D10220ED
:102DB000FEBD0700503701223A7000680024826887
:102DC000520706D578682021014379603C700120C4
:102DD000FEBD009109684903490B01918025AD02B0
:102DE000914E6900009A5268904B9A42826A019B08
:102DF00015D01343836200980068014006D0306804
:102E0000A901014331600A2000F0FCF80098006835
:102E1000054016D030688021C903014310E09A4371
:102E2000826200980068014003D030688049014008
:102E3000316000980068054003D030687D4901404A
:102E400031603C700020FEBDFEF1FFFF752F0008D1
:102E5000E12F0008EB2F0008F8B506003068816804
:102E60008907890F012903D101460968C9071CD4C4
:102E7000102401258168704A0A4015D181682943D0
:102E80008160012000F0BEF8FEF7A4FD0700306865
:102E90000068284009D1FEF79DFDC01B0B28F6D322
:102EA000306800682840F2D130E00020F2BD000018
:102EB000FFFEFFFFF8B506003068032182680A4074
:102EC000012A21D102461268D2071DD510240125FE
:102ED000826805231340012B15D182680223134316
:102EE000836030680160FEF775FD07003068806818
:102EF000284009D0FEF76EFDC01B0B28F6D33068C2
:102F000080682840F2D001E00020F2BD706D0443DB
:102F10007465B06D0543B5650120F2BDF8B50500D7
:102F2000286804278168394022D0102481683940FC
:102F300005D08168890702D4816821438160FEF74A
:102F400049FD060028688068384011D0FEF742FD30
:102F5000801B0B28F6D3286880683840F2D0686D53
:102F600004436C65A86D01210143A9650120F2BDF0
:102F70000020F2BD10B5816A4A6D502313402BD159
:102F8000486D8022920002434A650868C268C023E7
:102F90001B0113401CD120228A5C002A18D10A6828
:102FA0001268120714D5012283685B0709D44368AD
:102FB0000C24A3434360486D204B03401A434A65E9
:102FC00006E0486D202303434B65886D02438A6504
:102FD000080000F025FC10BDC96C496B884710BD86
:102FE00080B5806A00F022FC01BD80B5806A416D29
:102FF00040220A434265816D04220A43826500F043
:1030000014FC01BD18B504000D4800680D49FEF719
:1030100069FC4443009402E00098401E0090009830
:103020000028F9D111BD000008270140011000005F
:10303000FFFF7FFFFFFFBFFF17000080FFFEFFFFC6
:103040002000002040420F0080B5010014200870CD
:103050002D2048700020887000220948FFF757FB98
:1030600001BD000080B5010016208870082048705E
:103070001720C87000220248FFF7A6FB01BD000020
:103080003807002010B50100184C20001822FEF768
:103090008DFF0022E06881B22068FEF7DDFE00228D
:1030A000206981B26068FEF7D7FE0022606981B2B4
:1030B000A068FEF7D1FE012010BD002800D07047A7
:1030C00010B50A4C0022E06881B22068FEF7C4FE09
:1030D0000022206981B26068FEF7BEFE00226069AE
:1030E00081B2A068FEF7B8FE10BD00005C070020AA
:1030F00010B501004A480068012915D1FFF7F3FC1B
:10310000FFF78CF847480168012291430160802154
:10311000090602680A43026002680A40FCD101689D
:1031200001220A43026010BDFFF7DDFC3E4C012284
:103130001021200000F07EF8002280214901A0200B
:10314000C00500F079F801220221200000F072F899
:1031500000220121200000F06FF810BD80B500684A
:103160002F4908600120FFF7C3FF012002BDF8B519
:10317000050003D02D490822FEF732FF0024284E17
:10318000B4800422310008313068FFF719FD0028AF
:1031900024D170790028FCD00020002100220023D7
:1031A000234E6700F6193788C019378CC919402794
:1031B000F75BD2196027F65B9B19641C102CEFDBC0
:1031C0000004000D28800804000D68801004000D24
:1031D000A8801804000DE8800120F2BD3068FFF7D8
:1031E00038FD0020F2BD58B500210D4C2079104A61
:1031F0004300D2184B014E00A6193689D652491CFD
:103200000429F4DB401CC1B2102906DB20712068C0
:10321000FFF71FFD002001216171207151BD0000E9
:10322000A00700200824014000080050BC0700202F
:103230001406002030B500E030B585B005000C0064
:10324000FEF70AFE00940020019002900390694668
:103250002800FEF7C5FC05B030BDFEE710B53A4BBF
:1032600016C816C30C3B0122586881B21868FEF7D5
:10327000F3FD012010BD80B501003348012902D1C2
:10328000FFF7ECFF01BD0022416889B20068FEF73C
:10329000E3FD01BD38B500F0CBFA02000B000020C1
:1032A0001F4900F040F900221E4B00F0DBFA02003B
:1032B0000B0000201C4900F036F900F057FA00F02E
:1032C00019F900F01DFD00F051FA0500174829001A
:1032D00000F0B7F8164900F018FD04001548290061
:1032E00000F0AFF8290000F0ACF8290000F0A9F8D0
:1032F000210000F00AFD00F0FDF802000B000020A4
:103300000D4900F010F90DA20CCA00F0ABFA00F064
:103310002DFA0C4900F08AFD00D20C4832BD0000A5
:1033200000FEAF400000F0BF0088C340F11C8539AB
:10333000D905653AD4FD42340000F03F6666666602
:10334000661271C0331388C3B0070020000080BF2D
:1033500080B50200A020C00580214901012A00D0CB
:103360000022FEF779FD01BD9D2102000AD002D4A2
:10337000491E9218FCD5C905100A1206524100D305
:10338000012A4841704700009D210200EED55242BB
:10339000F446FFF7EBFF0122D2071043604730B439
:1033A00005004D400122D20715404B180418240E89
:1033B00025D01B0E2CD0FF2C31D0FF2B34D0E41A9B
:1033C000000209021043114343084808D10D1B1A9B
:1033D00002D2641EDB181B18DB18834200D31B1AB1
:1033E0004941F9D37F3423DDFF2C05DAE405480891
:1033F0006041284330BC7047FF20C005F9E7280032
:103400001B0E03D0FF2BF5D14902F3D0D043F1E7D7
:10341000FF2C01D14002F9D1FF20C005E9E74002AD
:10342000F4D1FF2BF8D1F1E728004902E2D0EDE713
:103430000B0200202442DCD15B129B1CD9D9D80599
:10344000D7E730B405004D400122D20715404B1894
:103450000418240E2ED01B0E32D0FF2C34D0FF2B9C
:103460003AD0E4180002090210431143000A090A85
:103470009446C2B24A43000AC3B24B43000A4843CF
:10348000110A5B181A43D2B2190A091801D4491853
:10349000641E080A7F3C23DBFE2C08DAE4050906DB
:1034A0001143634699416041284330BC7047FF2077
:1034B000C005F9E728001B0EFF2BF6D1D043F4E737
:1034C0002800FF2CF1D1F9E74002F7D1FF2B01D101
:1034D0004902F3D1E005E7E7D8054902E4D0EDE77A
:1034E00043020020641CDFD15B129B1CDCD9D80591
:1034F000DAE7FEE7012212060118CA420AD28A421E
:103500000DD83822120609098918C20FD2071143B3
:103510004007704700D049080909014301E0C10F85
:10352000C90700207047F0B40E005E400125ED078A
:103530002E40B446AE0ADF184C18F4423BD2F74294
:1035400041D2640D43D07F0D38D0E41BC902DB02A9
:1035500029432B43CF0ADB0A0600B61A9F4104D247
:10356000641EB6197F41B6185F416812800D241899
:103570000018844222DCE80C0021B6197F41B61AFB
:103580009F4102D2B6185F413F1C40414941F4D3EC
:10359000241C21DD2405B6197F41B61A9F4105D3AD
:1035A0003743C60737430026012F70416141664605
:1035B0003143F0BC7047FCD1F74205D20020C14333
:1035C00049054908F3E704D00020C143F1E77F0D26
:1035D000FAD000206146ECE72442FAD1401C614158
:1035E0000F03F6D30020E2E7F0B50E005E400125A0
:1035F000ED072E40B446AE0ADF184C18F44208D24C
:10360000F7420ED2640D01D07F0D12D10020614629
:10361000F0BD05D1F74201D87F0D05D10020C1438F
:10362000F0BDFBD1640DF9D00020C1434905490824
:103630008FE0E419C902DB0229432B43DB0A460D64
:10364000C00231438E4630B487B295B27D432E0C12
:10365000ADB2140C7C43A419260C240425439CB25F
:103660007C43A419190C7943270CC919A4B20F047F
:103670003C43090C000C97B247432E0CBE1935434E
:10368000ADB2170C4743360CBF19A6B2BF193E04A2
:103690003543240C3E0C36199FB24743BF19BCB2C8
:1036A0003E0C89191F0C47437F183E043443390CE4
:1036B000704680B297B247432E0CBE193543ADB267
:1036C000170C4743360CBF19A6B2BF193E04354349
:1036D000240C3E0C36199FB24743BF19BCB23E0CB6
:1036E00089191F0C47437F183E043443390C774631
:1036F0003F0C90B278432E0C80190604ADB22E43D5
:10370000050CA0B22D18120C7A435019020C80B28D
:10371000240CA4189AB27A43121914042043120CF0
:1037200089181B0C7B43C91830BCEF0A394203D1FE
:10373000B61940414941641E6F12BF0DE41B0BDBFB
:10374000FF19BC4211DA240500274208AE41784136
:10375000614166463143F0BD641C05D1401C6141A6
:10376000CF0201D34908F4E750E75DE70122520593
:103770004B18DA4201D9581570475B0D0722D20168
:103780009B1A10D9FF2B1DD2DB050122D2070A405C
:1037900013430903020D1143490AC200524100D9E3
:1037A000491CC81870470AD1800A0A030243521202
:1037B000921C04D9D3070B40D00518437047C80F9B
:1037C000C0077047C80F0002FF30C0057047FEE712
:1037D000FEE7FEE77047704780B500F03BFB01BD98
:1037E000704780B50A48FDF7AAFC01BD80B50948BD
:1037F000FFF76CFA01BD80B5FEF72EF90648FCF71D
:1038000085FD01BD80B50548FCF780FD01BD0000C8
:10381000F006002094060020040500208C050020FE
:1038200080B5FFF7E0FC01BD704770477047FEE7C9
:10383000010042221201D21E004207D002D4521EC1
:103840000018FCD5C10A4005120589187047000010
:103850000100EED54042F446FFF7EBFF0122D2070C
:1038600011436047F0B40125ED070F005F404FD4CE
:103870008B4200D1824205D98446100062468C46B4
:1038800019006346DF184C18640D7F0D3AD0661C92
:10389000760537D0E61B352E34DCDB022B43DB0A02
:1038A0000C0DC9022943C912202E0DDB1700203E42
:1038B00006D01F00F741F3405F400026012A774100
:1038C000C01871410DD217E01700F741F240574080
:1038D000F3415A40B340F3405A4000268018594102
:1038E0000AD3A21C52050FD0C207012F7241170044
:1038F0004008CB0718434908641C24054208AF411F
:1039000070416141F0BC7047641C21050020F9E75B
:103910006B4010E06B40ABE7F742F3D1E943F1E7CE
:103920002442EFD100200021ECE7F0B40125ED079F
:103930000F005F40EED40C00871A9C4105D2C01BDB
:10394000A141D219634169406B40AE0ADF184C189F
:10395000F442E1D2640D7F0DE2D0E61B362ED1DCBD
:10396000DB022B43DB0AA4460C0DC9022943C90A1A
:10397000012E28DC04D1D6075208DF073A435B0842
:10398000EF0A76429041994114D039423BD1B619A1
:1039900040414941761C394204D1761C0018494106
:1039A0003942FAD0B9436746B74208D9A41B240567
:1039B0002143A7E70042EAD13642E8D1A2E7E40A70
:1039C000E10700209EE7202E0BDD203E1F00F34084
:1039D000F7415F40012A002257417E4298419141C0
:1039E0000BE01700F741F2405740F3415A40B34013
:1039F000F3405A407E42904199410A0303D2641E2B
:103A0000B619404149410027641E24054208AE41D1
:103A100078416141F0BC7047F4B586B04B005B154E
:103A20000024E443A34205D10A0300D018E1CA0FE1
:103A300012D115E16A4600F015FA04000D002B00C2
:103A400089A003C82040194003D1002801D185492D
:103A500006E11900C80F04D000BF00BF82A003C850
:103A6000FEE0002B04DA80210906001B994100E0EA
:103A700020007FA20CCA002B06DA002680273F0612
:103A8000B61A9F4132003B0099420CDC01DB9042A8
:103A900009D201222000290000F0F9F904000D00EC
:103AA0000098401E00900020734922002B00FFF771
:103AB000D9FE06000F000020704922002B00FFF7FE
:103AC000D1FE02000B0030003900FFF72CFD04AAE4
:103AD00003C204A80CC804A803C8FFF785FD0400AE
:103AE0000D0067A003C822002B00FFF77DFD66A232
:103AF0000CCAFFF7B7FE22002B00FFF775FD64A28A
:103B00000CCAFFF7AFFE22002B00FFF76DFD62A28B
:103B10000CCAFFF7A7FE22002B00FFF765FD60A28D
:103B20000CCAFFF79FFE22002B00FFF75DFD5EA28F
:103B30000CCAFFF797FE22002B00FFF755FD5CA291
:103B40000CCAFFF78FFE22002B00FFF74DFD02008D
:103B50000B0030003900FFF7E8FE04AA0CCAFFF79B
:103B600043FD04AA03C20098FFF772FE04000D0093
:103B7000069800281AD150A003C822002B00FFF796
:103B800033FD04AA0CCAFFF76DFE02000B003000E3
:103B90003900FFF7CAFE06000F0049A003C8220043
:103BA0002B00FFF721FD32003B0057E036DD0020FF
:103BB000454932003B00FFF717FD0290039143A0F7
:103BC00003C832003B00FFF70FFD0090019104A8ED
:103BD00003C840A20CCAFFF707FD06000F003FA074
:103BE00003C822002B00FFF7FFFC32003B00FFF769
:103BF00039FE02000B0000980199FFF796FE029A29
:103C0000039BFFF72FFE06000F000020354922001E
:103C10002B00FFF7E9FC32003B001FE032A003C895
:103C200032003B00FFF7E0FC0090019130A003C898
:103C300032003B00FFF7D8FC06000F0004A803C8C1
:103C40002DA20CCAFFF7D0FC32003B00FFF70AFEA2
:103C5000009A019BFFF706FE22002B00FFF702FEF1
:103C600007B0F0BD0000F0FFFFFFFFFFFFFFFF7F89
:103C7000CD3B7F669EA0E63F0000F0BF0000F03F16
:103C8000F7DE29BFD8F8C23FF4B3FECC1A99C33F80
:103C900062CB68D96F46C73FC6C912DAC471CC3F40
:103CA0004AE98A942449D23FF75F97999999D93F75
:103CB000BC5555555555E53F9EBC9AF71C7D7FBEBA
:103CC000000000C0422EE63F7BCBDB3FABA6320EAE
:103CD000E526553E0EE526157BCBDB3F7CC4BC7F3D
:103CE000DE2774BE1344D33F000000604715F73F42
:103CF00044DF5DF80BAE543EFE822B654715F7BFDF
:103D000080B50022FFF788FE04BD0122D207030020
:103D10004B402ED4431A01D2C01AC91830B44B18E4
:103D20000418240E1B0E22D0FF2C20D0E31A182BCF
:103D30001DDC09021143C40D641E000210439446A9
:103D40001925ED1A0A00AA40D940451801D36D087B
:103D5000A41CE405D209280A2D062A436546AA4177
:103D6000604103181B0EFF2B01D3C00DC00530BCF2
:103D70007047514006E05140CCE70122D2070300D2
:103D80004B40F8D4431A03D2C01AC91850405140CE
:103D900030B44B18090211430418240E1B0E40D0F6
:103DA000FF2C3AD025009D410BD31ED8C50D4002F3
:103DB000401A0BD3ED050100400AC9059141684145
:103DC000D5E7C50D40024918401AD0D0012140085E
:103DD000491C0018FCD58C4204D36D1A000AED056D
:103DE0004019C4E7E8051040C1E7182DBFDCAC1C42
:103DF0000D00E140E5414D40012D4941C40D000257
:103E00001043451A01D46D199543641EE405280A30
:103E10002D069541604130BC7047FF2BA7D1D84398
:103E2000A5E72442A3D10020A1E7FEE70CB40122BC
:103E300012060318DA4207D84B18DA4204D80200F7
:103E40000A43921802D288420CBC7047FCD08142CF
:103E5000FAE7FEE702484168027889184160704736
:103E60001400002010B5144600F002F8226010BDC6
:103E70004A0053155B1C08D0520D06D003231B02C9
:103E8000FE3AD21A1305C91A70470022704712422F
:103E900017D40023DB435B0D9C464B005B0D06D023
:103EA000634504D09B18634502D2120589187047F8
:103EB0006246090D11430905002000B500BF00BF8F
:103EC00000BD52424B005B0DF1D05B1C5B05EED296
:103ED0005B0D934102D91205891A70470BD10B0370
:103EE0001B13C90FC907821C002043411343E4D9A7
:103EF00012051143E1E7C90FC9070020DDE770B4DF
:103F00000123002413E00168001D194202D04D4630
:103F10006918491E0C60091D121F042AFAD20D00EF
:103F2000960701D50C80AD1C1A4000D02C70026899
:103F3000001D002AE7D170BC7047FEE710B50749A5
:103F400079441831064C7C44163404E0081D0A6894
:103F5000891888470100A142F8D110BD080000006F
:103F6000240000009BFFFFFF480700007C000020AA
:103F70000000000023DAFFFFB800000094000000FA
:103F8000000000207047000000000000000000005A
:103F90000102030406070809030406080C10182090
:103FA0003000000000F00DF8002801D0FFF7C6FF38
:103FB00000BF00BF002000BF00BFFDF79BFD00F069
:103FC00002F80120704780B500F002F801BDFEE75D
:103FD0000746384600F002F8FBE7FEE780B500BF71
:103FE00000BF024A11001820ABBEFBE7260002000A
:103FF0000548014603B4684680F3098800BF00BF46
:1040000000BF00BFFFF7CEFFA5EDF5FE01488047DA
:1040100001480047853F0008F13F0008000000000C
:1040200001020304FEE7FEE7FEE7FEE7FEE7FEE728
:104030000900080050000400500002FD00071000B5
:10404000007C04002001F9000004FB000020D300E4
:104050000304050020FD0005500001000001FA00E6
:104060000050FD000050FD00015040FD000020FD0B
:0A407000000010FD0003940600207C
:0400000508003FF1BF
:00000001FF
