:020000040800F2
:10000000D8150020A9750008ED660008F166000803
:1000100000000000000000000000000000000000E0
:100020000000000000000000000000002167000840
:10003000000000000000000023670008256700089A
:10004000D7100008771200082D670008D71700089E
:100050003D670008DB1700083F670008672B0008B2
:1000600000000000496700086B380008434300089F
:10007000536700081F4E0008000000009755000855
:10008000000000005D6700080000000000000000A4
:10009000975900080000000017680008AF6A0008C0
:1000A000D76A00089F6C00083F7200086767000865
:1000B000756700089B740008000000000000000045
:1000C0000100202008437047FDB5B2B03A98049172
:1000D00002A93B22885400200D9024A8401C2F9098
:1000E0000DE00498329A90470490002801D100F066
:1000F000B7FE0D98401C0D903398401C33903398F8
:100100000178002910D02529EBD100200790089014
:1001100009900A900B900C90002102240120149069
:1001200008201290339D05E00D9800F09BFE08001A
:10013000149901436D1C28782028F8D023280BD06F
:100140002B2804D02D2804D0302808D00AE02143E1
:10015000F0E708000421ECE708000821E9E70800BF
:100160001021E6E72A280FD1349802681068121D82
:10017000349B1A600F90002804D542420F92080069
:10018000042101436D1C12E000200F90644A09E035
:100190000F9B934205DA9E00F3185B001818303865
:1001A0000F906D1C28780300303B0A2BF0D3287881
:1001B0002E2803D00020C0430E9027E06D1C287825
:1001C0002A2808D1349800680268001D349B186002
:1001D0000E926D1C1AE02D2802D12D226D1C00E01C
:1001E000002200200E900CE0002A09D10E9B4C4EFC
:1001F000B34205DA9E00F3185B00181830380E90F1
:100200006D1C28780300303B0A2BEDD302A8018730
:100210002E78310040487844FF30401E00F016FF31
:10022000002801D06D1C00E0002602A83A214654A7
:10023000405C682804D1287868280BD1622005E04A
:100240006C2807D128786C2804D1712002A93A22A1
:1002500088546D1C15A80690287869460870681C9B
:100260003390684602781000253833D01C3800D10E
:10027000CCE1001F022800D8C8E1133801D100F0FA
:1002800019FD093800D1C1E1801E01D100F0AFFD98
:10029000401E01D100F05CFD401E022800D8B5E1EF
:1002A000001F01D100F054FD401F00D108E1401EA5
:1002B00001D100F0FFFC401E00D1F0E0C01E0ED0C6
:1002C000801E01D100F0F6FCC01E01D100F0F2FC4E
:1002D00000F098FD14980790252015A97CE134982A
:1002E00000680468001D349908600594002C00D053
:1002F000C1E002A83B21405C002800D1B5E0002409
:10030000E44306487844143000F0AEFE201A01D0D1
:1003100000F0A6FD00F083FDDC700000107100000D
:10032000CBCCCC0C01236A4602A9280000F054FE75
:10033000002801D000F094FD641EF3D13295079D92
:1003400015AC002D0FD0329E21780498B047049050
:10035000002801D100F084FD0D98401C0D90641C14
:100360006D1EF1D132963020694608700A9C002C2F
:100370000DDD329D01236A4602A9280000F02CFE03
:10038000002801D000F06CFD641EF3D13295059C6D
:10039000089D002D0FD0329E21780498B04704901C
:1003A000002801D100F05CFD0D98401C0D90641CEC
:1003B0006D1EF1D13296302769460F700B9C002CD0
:1003C0000DDD329D01236A4602A9280000F004FEDB
:1003D000002801D000F044FD641EF3D13295059849
:1003E00008994418099D002D0FD0329E2178049859
:1003F000B0470490002801D100F032FD0D98401C58
:100400000D90641C6D1EF1D13296684607700C9CED
:10041000002C0DDD329D01236A4602A9280000F060
:10042000DBFD002801D000F01BFD641EF3D13295E6
:1004300002A83821405C400700D460E620206946CD
:1004400008700198002800DC59E6019C329D0123C8
:100450006A4602A9280000F0BFFD002801D000F084
:10046000FFFC641EF3D1329549E61B48784468309E
:10047000059000F0D4FC0E9D002D03D5200000F067
:1004800017FE09E02A000021200000F019FE0028D4
:1004900001D0001B00E02800089000F0C0FC349858
:1004A00000680268001D349908600020C0430021E4
:1004B000104002AA03C215A80590782100F093FC11
:1004C00002A83B21415C002908D00024E4434B48AA
:1004D0007844FF30293017E7706F00003A21405C04
:1004E00062286AD0682819D06A2845D06C2806D0BE
:1004F00071284FD0742831D07A2821D06FE03498F9
:1005000000680168001D349A106000297AD1002427
:10051000E4433B487844FF301738F5E634980068E8
:100520000168001D349A1060002905D10024E443BD
:1005300033487844CA30E7E60D98088000F06FFC35
:10054000349800680168001D349A1060002959D160
:100550000024E4432A487844A630D5E6349800685D
:100560000168001D349A106000294BD10024E44337
:10057000234878448A30C7E6349800680268001D32
:1005800034990860002A13D10024E4431C487844BD
:100590006E30B9E6349800680268001D349908602E
:1005A000002A05D10024E443154878445230ABE6D4
:1005B0000D98C11703C200F032FC3498006801683E
:1005C000001D349A1060002905D10024E4430C4832
:1005D00078442C3098E60D98087000F020FC349890
:1005E00000680168001D349A106000290AD10024B7
:1005F000E44303487844083086E600BF006E0000FC
:10060000146E00000D98086000F009FC3498006832
:10061000C31D072083433498036003CB349D2B60B4
:1006200002AB03C32023C80F04D007982D2115ABBC
:1006300019540DE002A8008F204204D007982B2106
:1006400015AB195404E0C00704D5079815A90B543D
:10065000401C079015A8079940181390139805900F
:1006600024AD02A8C0C8684600782021014368462E
:100670008170807861280BD00E98002801D5062063
:1006800005E005D168468078672801D114980E905E
:1006900002A803C808004B005B150024E443A342F2
:1006A0000ED109030CD003200890613A1A2A03D214
:1006B0001949794462310FE0184979445E310BE001
:1006C000A3420ED100030CD103200890613A1A2AEC
:1006D0001DD31349794448310322139800F016FDC5
:1006E0009DE301AA02A803C800F01DFD02AA03C2EF
:1006F0006846807861281CD1059830210170811CE2
:1007000005916946097861290ED178210DE00549E6
:1007100079441031E0E700BF346D0000346D000013
:10072000386D0000306D0000582141700798801C22
:10073000079002A803C82246530802400B4004D188
:10074000002A02D10024002652E168468078612800
:1007500000D099E00E98002801D5212000E0401C2F
:1007600013901398401C2E90300039000022002373
:1007700000F0EEFC02A830C802D2802000064540FE
:100780000198001F019024A90A7024A8461C2E98E5
:10079000002832DD2E9F20002900002280235B03E9
:1007A00000F0EFFC29D81C2200F004FD04000D002D
:1007B00000F038FD2E90FF1F002F09DD00F06CFDCA
:1007C00002000B002000290000F0D3FD04000D0002
:1007D000F01D07212E9A002A0ADD491E08D4401E6A
:1007E00013071B0F03701211F5E7401E0022027061
:1007F000491EFAD5C61D002FCDDC24A82F99711AE9
:1008000024AA551C139A0C00914200DD1400002C00
:1008100033D48C4205DA411C095D082901DB0F2124
:1008200000E00021220024AB9B1801E0641E5B1E47
:10083000521E1E788E42F9D00F2904D1411C895CCA
:10084000491C401C8154002A04D524AD641C019825
:10085000001D0190611E10D46A1868460078137854
:100860003033DEB23A2E01DBC318C6331370491E93
:10087000521E0029F3D5694608700E98002800D44E
:10088000B5E0601E0E90B2E07F007F0801986649D7
:100890004843664900F0E4FD019007200199401AA1
:1008A000002805DD02003000390000F06FFB0AE08F
:1008B000424200205E4900F069FB02000B0030005C
:1008C000390000F0FCFD6A469278662A02D1019A4E
:1008D0000A3200E006220E9B9A18142A00DD142228
:1008E00024AB30241C705C1C02E030A803C8139AAF
:1008F000002A3CDD30AB03C3139230A803C800F0DC
:10090000A3FC2E9006460834042530000A2100F08E
:10091000BBFD0F0030000A2100F0B6FD06003037A5
:10092000601E077030000A2100F0AEFD0F0030009D
:100930000A2100F0A9FD0600A41E303727706D1EA5
:10094000E3D108341398083813900028CDDD2E9891
:1009500000F092FC02000B0030A803C800F009FD73
:100960000022344B00F00CFE30AA03C2C5E72F98DA
:10097000201A24A94D1C04E0401E0199491E019132
:100980006D1C29783029F7D069468978662902D10B
:100990000199491C06E069468978652901D11499B5
:1009A00000E000210E9A5418A04200DA441E002CE8
:1009B0001DD4844204DA285D342801DD392100E0A9
:1009C00030212200681E831801E0641E5B1E521E47
:1009D0001E788E42F9D0392902D1A95C491CA9544C
:1009E000002A04D50500641C0198401C0190019E5A
:1009F0001395684600786946487000F083FE406AA7
:100A00000078694608700E9D20B2002804DC149C12
:100A1000044878440E3013906846807866280BD1DD
:100A2000761C23E0386A000097750000A08601005C
:100A30000000F03F84D7974168468078672846D108
:100A400030B20321C943884247DBA84245DA761C0D
:100A500002A8008F1299C0B2084203D120B2A84266
:100A600000DC050030B22D1A00D5002537B2002F6A
:100A700000DDBAE00898411C08913021059A115414
:100A8000002D05DC02A8008F1299C0B2084206D0E2
:100A90000898411C089169460978059A11547842D2
:100AA000854200DA6E4236B270420B90AD1920B228
:100AB000854200DA2C0024B209942200139905988B
:100AC000089BC01800F022FB281B0C90DAE0684657
:100AD0004078612818D170201BE020B2A84206DAC5
:100AE00002A9098F129AC9B2114200D105006D1EE8
:100AF00000D5002568464078672802D16520694600
:100B000007E04520694604E068464078412801D165
:100B1000502048700898411C089113990978059A4B
:100B200011541398411C002D05DC02A8008F129A65
:100B3000C0B2104219D00898421C08926A46127836
:100B4000059B1A54002D10DD641E20B2854200DA88
:100B50002C0022B20598089BC01800F0D7FA24B2E6
:100B6000089800190890281B0B90059808994018C0
:100B700069464978017031B2002903D42B214170B4
:100B8000871C03E02D224270871C4E42002412ADC8
:100B9000300008E00A2100F063FC30AA03C229708B
:100BA0003098641C6D1C00B20028F3DC012C08DCBA
:100BB0006846407820210143652902D130203870F1
:100BC0007F1C002C09D1302038707F1C07E0641E88
:100BD00012A8005D303038707F1C002CF7DC0598BF
:100BE00008994018381A09904CE020B231B2884276
:100BF0001DDA22B213990598089BC01800F086FAF6
:100C000024B2089800190890391B0B91002D05DCBF
:100C100002A9098F129AC9B2114206D06946097811
:100C2000059A11540998401C09900C952AE032B29B
:100C300013990598089BC01800F068FA0898C01925
:100C40000890A41B002D05DC02A9098F129AC9B2D5
:100C5000114205D0411C089169460978059A115442
:100C600020B2854200DA2C0022B21398C1190598EF
:100C7000089BC01800F04AFA24B20898001908909E
:100C8000281B0B9002A83821405C14210140102938
:100C900000D0C4E00798089940180B9940180999AA
:100CA00040180C9940180F99884200DBB7E0081AE9
:100CB0000A90B4E002AA3A20105C622808D06828A2
:100CC0000ED06A2814D06C281DD0712810D01AE0DC
:100CD000349801680868091D349B1960C0B218E097
:100CE000349801680868091D349B196080B210E0CF
:100CF00034980068C31D072083433498036003CBF6
:100D0000349C236006E0349801680868091D349B10
:100D10001960002102AB03C3108F1299C0B20842C0
:100D20005BD002A803C8002901D1002855D068462D
:100D300000782021014378294FD1079815A9302246
:100D40000A54401C421C07926A4612780A5444E036
:100D500002AA3A20105C622808D068280ED06A28BF
:100D600014D06C281DD0712810D01AE03498016876
:100D70000868091D349B196040B218E03498016876
:100D80000868091D349B196000B210E034980068AF
:100D9000C31D072083433498036003CB349D2B602D
:100DA00006E0349801680868091D349B1960C11772
:100DB00002AB03C3002902DA07982D2109E0108F46
:100DC000204202D007982B2103E0C00705D50798E1
:100DD000202115AA1154401C079015A80799401806
:100DE00005906846017802A800F03EF817E01498D4
:100DF0000790349800680168001D349A106015A8A7
:100E000001700CE014980790252015A90870684619
:100E10000078002803D007946846007848700F983F
:100E20000799401A0A99401A0899401A0B99401AD2
:100E30000999401A0C99401A019002A83821405C87
:100E4000400701D5FFF77BFA20206946087001981A
:100E5000002801DCFFF773FA019C329DFFF762FA6C
:100E60000020C04335B0F0BDF2B586B0040025695E
:100E70006F2901D1082707E00846FFF721F97828F4
:100E800001D00A2700E010273C2603CC083C04AA26
:100E900003C26A46127E642A03D06A46127E692A19
:100EA00009D1002907DA04A803C800220023121A76
:100EB0008B4104A80CC004A803C800290DD1002848
:100EC0000BD1206B002808D1082F3DD13820205CA1
:100ED000000739D53B26302035E00294009504A860
:100EE00030C8761E0196200029003A00FB1700F05A
:100EF0002EFC3032D0B23A280DDA0098825520000C
:100F000029003A00FB1700F022FC04000D0007D175
:100F1000002C05D10AE06846007E8218AF32ECE76B
:100F20000298C068009989198842DAD3029C009D12
:100F3000082F09D13820205C000705D5A85D30288E
:100F400002D0761E3020A8553C20801BA061A91934
:100F5000E160216B884206DA081A2062208F1C4962
:100F60000140218710E000290ED53821615C142250
:100F70000A40102A08D1616B6269891A226A891AAB
:100F8000081A002800DD206207B0F0BDF8B5002681
:100F9000104F04000D00009214E0C00707D5320086
:100FA0003B002000290000F0EBFA04000D0000983F
:100FB000401000903000390032003B0000F0E0FAB1
:100FC00006000F0000980028E7D120002900F4BD9A
:100FD000EFFF000000002440F8B50024002B11D0E2
:100FE00007000E0014001D002178B068B847B060FB
:100FF000002809D0F06A401CF0620020641C6D1EBD
:10100000F2D104002000F2BD0020C043F9E730B562
:1010100001684118446862088A188368E40704D5A7
:101020004C461B1901E0641C09D1914203D00C7895
:1010300064B2491C01E00C3030BD0D78491C1D70B4
:101040005B1C002CEFD4641EF7D5EEE7C9B2027822
:101050008A4203D0401C002AF9D100207047026860
:10106000531C03601170704780B5002801D100BF88
:1010700007A006490B68002B03D0222200219847C5
:1010800001E000F0A2FB222002BD0000D4110020EC
:10109000636F6E73747261696E742068616E646CE4
:1010A00065723A20626164206D65737361676500E3
:1010B000431C0178401C0942FBD1C01A70472E0026
:1010C000C9B2521E05D30378401C8B42F9D1401E91
:1010D000704700207047FEE770B4103A03D378C918
:1010E000103A78C0FBD2530701D318C918C001D5F4
:1010F00008C908C0D20704D30B880380891C801C50
:10110000002A01D50B78037070BC70478B0701D1A2
:101110008307E1D0124205D00B78491C0370401CB4
:10112000521EF9D1704710B5144600F002F8226043
:1011300010BD4A0053155B1C08D0520D06D0032386
:101140001B02FE3AD21A1305C91A704700227047D3
:1011500030B4012464054D00EC420BD85D00EC4234
:1011600008D80C001C4364000443144304D2994281
:1011700000D1904230BC7047FCD08B42FAD1824201
:10118000F8E730B4012464054D00EC420BD85D0053
:10119000EC4208D80C001C4364000443144304D2FE
:1011A0008B4200D1824230BC7047FCD09942FAD1C8
:1011B0009042F8E7124217D40023DB435B0D9C46B4
:1011C0004B005B0D06D0634504D09B18634502D2EB
:1011D0001205891870476246090D11430905002060
:1011E00000B500BF00BF00BD52424B005B0DF1D007
:1011F0005B1C5B05EED25B0D934102D91205891A87
:1012000070470BD10B031B13C90FC907821C0020A9
:1012100043411343E4D912051143E1E7C90FC9075C
:101220000020DDE7F4464A1805D200F00FF801D59A
:1012300080174008604700F009F80121C90788427B
:1012400000D90800404260474A1812D2400DC90236
:1012500008430121C9070843520D40210901521AD0
:10126000521C06D452421F3201D4D0407047C017DE
:10127000704700207047FEE7010042221201D21E93
:10128000004207D002D4521E0018FCD5C10A400506
:1012900012058918704700000100EED54042F4465F
:1012A000FFF7EBFF0122D20711436047F0B401259D
:1012B000ED070F005F404FD48B4200D1824205D929
:1012C0008446100062468C4619006346DF184C18AD
:1012D000640D7F0D3AD0661C760537D0E61B352E9F
:1012E00034DCDB022B43DB0A0C0DC9022943C91293
:1012F000202E0DDB1700203E06D01F00F741F340E3
:101300005F400026012A7741C01871410DD217E0D5
:101310001700F741F2405740F3415A40B340F340C1
:101320005A400026801859410AD3A21C52050FD0FA
:10133000C207012F724117004008CB071843490824
:10134000641C24054208AF4170416141F0BC704704
:10135000641C21050020F9E76B4010E06B40ABE70F
:10136000F742F3D1E943F1E72442EFD10020002115
:10137000ECE7F0B40125ED070F005F40EED40C0060
:10138000871A9C4105D2C01BA141D2196341694013
:101390006B40AE0ADF184C18F442E1D2640D7F0DA9
:1013A000E2D0E61B362ED1DCDB022B43DB0AA4465F
:1013B0000C0DC9022943C90A012E28DC04D1D60725
:1013C0005208DF073A435B08EF0A764290419941A1
:1013D00014D039423BD1B61940414941761C3942BB
:1013E00004D1761C001849413942FAD0B943674606
:1013F000B74208D9A41B24052143A7E70042EAD13C
:101400003642E8D1A2E7E40AE10700209EE7202E59
:101410000BDD203E1F00F340F7415F40012A002210
:1014200057417E42984191410BE01700F741F2404D
:101430005740F3415A40B340F3405A407E429041F6
:1014400099410A0303D2641EB6194041494100275D
:10145000641E24054208AE4178416141F0BC7047EA
:10146000CA0F00D0494203105A400DD004B500D332
:10147000404200F009F8009AD20701D349421242D3
:1014800000D5404204BD0000094214D088420FD369
:101490000122030C01D100041204002300185B4157
:1014A0008B4200D35B1A5241F8D3190010007047E9
:1014B00001000020704708B500F08CF908BDF0B4B9
:1014C0000E005E400125ED072E40B446AE0ADF183F
:1014D0004C18F4423BD2F74241D2640D43D07F0D09
:1014E00038D0E41BC902DB0229432B43CF0ADB0AB5
:1014F0000600B61A9F4104D2641EB6197F41B61881
:101500005F416812800D24180018844222DCE80C28
:101510000021B6197F41B61A9F4102D2B6185F4129
:101520003F1C40414941F4D3241C21DD2405B61958
:101530007F41B61A9F4105D33743C607374300267C
:10154000012F7041614166463143F0BC7047FCD1C8
:10155000F74205D20020C14349054908F3E704D00A
:101560000020C143F1E77F0DFAD000206146ECE78F
:101570002442FAD1401C61410F03F6D30020E2E778
:10158000F0B50E005E400125ED072E40B446AE0AD0
:10159000DF184C18F44208D2F7420ED2640D01D085
:1015A0007F0D12D100206146F0BD05D1F74201D870
:1015B0007F0D05D10020C143F0BDFBD1640DF9D0F2
:1015C0000020C143490549088FE0E419C902DB0244
:1015D00029432B43DB0A460DC00231438E4630B40B
:1015E00087B295B27D432E0CADB2140C7C43A41986
:1015F000260C240425439CB27C43A419190C79437E
:10160000270CC919A4B20F043C43090C000C97B273
:1016100047432E0CBE193543ADB2170C4743360C69
:10162000BF19A6B2BF193E043543240C3E0C36192F
:101630009FB24743BF19BCB23E0C89191F0C4743E8
:101640007F183E043443390C704680B297B247434A
:101650002E0CBE193543ADB2170C4743360CBF19DB
:10166000A6B2BF193E043543240C3E0C36199FB276
:101670004743BF19BCB23E0C89191F0C47437F1862
:101680003E043443390C77463F0C90B278432E0C1D
:1016900080190604ADB22E43050CA0B22D18120C11
:1016A0007A435019020C80B2240CA4189AB27A43DF
:1016B000121914042043120C89181B0C7B43C918FF
:1016C00030BCEF0A394203D1B61940414941641E8A
:1016D0006F12BF0DE41B0BDBFF19BC4211DA2405AE
:1016E00000274208AE417841614166463143F0BD72
:1016F000641C05D1401C6141CF0201D34908F4E7C5
:1017000050E75DE701487047000000003C01002001
:1017100030B4DC0F03D05B42524200D25B1E0D108E
:101720006C4013D0F446002502D349424042A941FF
:1017300000F00DF8E40703D35B425242AB41244270
:1017400002D549424042A94130BC604730BC1242F8
:101750002DD0994231D970B500251B4209D00C001B
:10176000002112E01100FFF78FFE0A000021002384
:1017700070BD0942F6D00024012649186441944204
:1017800000D3A41A7641F8D33100012601E0764156
:1017900009D2001864416D41A41A9D41F7D2A418E2
:1017A0005D41B619F5D3300022002B0070BD1B42FD
:1017B000CFD108B500F010F808BD01D19042CAD2CF
:1017C00002000B0000210020704780B5012000F0CE
:1017D00005F801BD7047FEE77047FEE780B500BF22
:1017E00000BF024A11001820ABBEFBE72600020032
:1017F00038B5040014D0250078356868002803D176
:101800002870200000F06EFF2420686020680168C6
:10181000012291430160200000F056FB012801D114
:10182000012032BD606A002802D0200000F052FC86
:1018300020684168084A0A404260206881682A227C
:1018400091438160FFE72068016801220A4302603A
:10185000200000F0A5FC32BDFFB7FFFF70B504000B
:1018600001D1012070BD25007835242068602068F2
:10187000016801229143016000262068066020680B
:10188000466020688660200000F097FFEE606E6082
:10189000AE60266666662E70002070BDF1B584B01D
:1018A0001F0006465036F06A202861D10C000FD088
:1018B00068460280002A0BD0049880688021490184
:1018C000884207D104980069002803D1E00701D5B8
:1018D00001204EE0002575632120F06200F0B2FF88
:1018E00001006846008830806846008870803A00B1
:1018F0000498806880235B01984209D104980069AC
:10190000002805D12500049F0192029104001AE0ED
:101910002000F8E721788162641C11E001980090B2
:10192000029B00228021380000F098FC00281BD187
:101930003868002CEED12988C905C90D8162AD1C1B
:101940007088401E708070880028E7D13800029BA4
:10195000019900910022402100F080FC002803D171
:101960002020F062002004E02020F062032000E04C
:10197000022005B0F0BD70B58023C358202B28D1BC
:1019800000290BD0130009D0836880246401A3428E
:1019900006D10369002B03D1CB0701D5012070BD0F
:1019A0000023036603680C4CA3420FD05B681B0244
:1019B0000CD5EFF31083012484F3108804682568A4
:1019C0008026F6042E43266083F3108800F092FCF4
:1019D00070BD022070BD000000480040F8B5040052
:1019E00001200090EFF31080012181F3108821681D
:1019F0000A68784B13400B6080F31088EFF3108077
:101A0000012181F3108821688A6801239A438A6042
:101A100080F31088206E01280BD1EFF31080012194
:101A200081F3108821680A6810239A430A6080F3C2
:101A3000108827006037396900258020002907D0E9
:101A400022689268024002D0634A8A6300E08D6394
:101A500079694026002907D022689268324002D076
:101A60005E4A8A6300E08D6321688968084016D069
:101A7000EFF31080012181F3108821688A688023A8
:101A80009A438A6080F310883869002807D000F0F4
:101A9000B7FF002802D03869856300E00095206810
:101AA0008068064015D0EFF31080012181F3108883
:101AB00021688A6840239A438A6080F31088786995
:101AC000002806D000F09CFF00281CD078698563B0
:101AD00002E00098002816D020005230002101803A
:101AE0000181BD60FD607D620F2021680862206871
:101AF000816908220A4382612020F86138623D60D2
:101B0000200001F02AF80020F2BDF8B5EFF31081B3
:101B1000012282F31088026813682D4C1C40146067
:101B200081F31088EFF31081012282F3108802689C
:101B300093680124A343936081F31088016E012907
:101B40000BD1EFF31081012282F310880268136831
:101B50001024A343136081F31088056804006034E7
:101B600020210F230022AE68760626D5EFF31085DC
:101B70000095012585F310880568AE684027BE43AF
:101B8000AE60009D85F310886569002D0AD0144869
:101B9000A863606900F034FF002817D06069816B8A
:101BA000884713E05A268553426505682B6203680F
:101BB0009D6908262E439E6104E000265A27C653DD
:101BC00042652B622162226000F0C8FF0020F2BD56
:101BD000DFFEFFFF1FFEFFFF5924000893240008CB
:101BE000D7240008FEB504002368D869194609689F
:101BF0009A682500583520260E400096202606407B
:101C000001960026AB4F07400BD1019F002F0CD04F
:101C1000009F002F09D02969002901D020008847A2
:101C2000F7BDD70702D4A44F0F4078D0C70706D519
:101C3000CF0504D501271F62EB6A1F43EF628307BC
:101C400008D5D30706D5022327683B62EB6A042731
:101C50001F43EF620423184207D0D70705D5276832
:101C60003B62EB6A02271F43EF620823184209D048
:101C7000009F002F01D1D20704D522681362EA6ABF
:101C80001343EB6280221201104007D0480105D5B2
:101C900020680262E86A20210143E962E86A0028BC
:101CA00033D00198002807D00098002804D0296973
:101CB000002901D020008847E86A40272168896808
:101CC000394002D12821014024D0200000F082FBBD
:101CD00020688068074019D0EFF31080012181F35C
:101CE000108821688A6840239A438A6080F31088AC
:101CF000E86900280AD071498163E86900F080FE34
:101D0000002802D0E869816B8847F7BD200000F009
:101D100026FFF7BD200000F022FFEE62F7BDAF689E
:101D2000012F00D098E01027384200D0394200D16E
:101D300092E01F621020C0430121C94322689268CB
:101D400052064CD5EA6913685B689BB2002BE5D05C
:101D50005827E75BBB42E1DA6B8012681268920693
:101D600035D4EFF310820092012282F310882268AA
:101D70001368534F1F401760009A82F31088EFF3E7
:101D80001082012383F3108823689F68394099608B
:101D900082F31088EFF31081012282F31088226809
:101DA00093684027BB43936081F310882021A96288
:101DB000AE60EFF31081012282F31088226813686D
:101DC0001840106081F31088E86900F0F4FD0220EB
:101DD000E8605820205A6988411A89B238E05822B0
:101DE000A25A6B88D21A6B461A806A88002A60D081
:101DF0006A461288002A5CD0EFF310820192012219
:101E000082F31088226813682E4F1F401760019AD2
:101E100082F31088EFF31082012383F31088236884
:101E20009F683940996082F310882021A962AE60D2
:101E30002E61EFF31081012282F31088226813686B
:101E40001840106081F310880220E860684601881D
:101E5000200000F085FEF7BD80277F03384206D0C2
:101E6000520204D51F62200000F07BFEF7BD8022E5
:101E7000104207D00A4005D06969002919D0200016
:101E80008847F7BD4022104013D00A4011D0EFF32D
:101E90001080012181F3108821680A6840239A4349
:101EA0000A6080F31088202068626E61200000F0D4
:101EB00059FEF7BD0F08000020010004452400086A
:101EC000FFFEFFFFDFFEFFFFF8B5050000242B68D3
:101ED000186879490140A86808432969014368697D
:101EE0000843E96901431960586874490140E8688A
:101EF00008435860A86972498B4202D00100286AE1
:101F0000084399686F4A0A40104398606E488108F8
:101F1000802212026D4EB34233D16D4EF66CB6077D
:101F2000B60F04D0022E6AD06BD3032E63E00126D5
:101F30000096674B1026EF699742009F00D08BE018
:101F4000002F0AD0012F7AD0022F7BD0042F00D18E
:101F50007DE0082F00D17DE0A8E001F020F9002805
:101F60002DD0696840004A088018FFF78DFA0100FB
:101F70001039B74A9142EFD202400007400F104398
:101F800084E0864EB34224D1514EF66C0C27374084
:101F900033D0042F35D0082F31D00C2F33D010265A
:101FA000474FBB42C4D1002E06D0022E2DD0042EA6
:101FB00031D0082E32D079E001F0F1F8002876D047
:101FC0006A6851008918884270D31103814227D270
:101FD0006CE03B4EB342E2D13D4EF76CC026360179
:101FE0003E400AD05709BE420BD01709BE4206D068
:101FF000C0273F01BE4206D0D1E70026D0E7022627
:10200000CEE70426CCE70826CAE7314A1268D20692
:10201000D6D50800D4E701F089F8CFE71000CFE764
:10202000070E060250080021801979410023FFF7AE
:102030008EFB88494118884A914237D226E001F048
:10204000B9F88CE71A6816408BD0080089E701F0D0
:102050006DF884E7100084E7002F08D0012F18D016
:10206000022F19D0042F1CD0082F1DD01EE001F024
:1020700096F800281BD069684A088018FFF704FA10
:1020800001001039724A914210D280B22968C860AA
:102090000DE001F08FF8ECE71A681640EBD008006D
:1020A000E9E701F043F8E4E71000E4E70124002049
:1020B000A866E8662000F2BDF369FFEFFFCFFFFFDF
:1020C00000480040FFF4FFFF0024F4000038014006
:1020D000001002402421415CC90706D501684A6806
:1020E000AF4B1340826A1A434A602421415C89073E
:1020F00006D501684A68AB4B1340C26A1A434A606E
:102100002421415C490706D501684A68A64B134063
:10211000026B1A434A602421415C090706D5016815
:102120004A68A24B1340426B1A434A602421415C27
:10213000C90606D501688A689D4B1340826B1A4315
:102140008A602421415C890606D501688A68994B1A
:102150001340C26B1A438A602421415C490611D5A1
:1021600001684A68974B1340026C1A434A60026C3C
:1021700080235B039A4205D14A68934B1340426C1B
:102180001A434A602421415C090606D501684A6861
:102190008E4B1340806C18434860704700440040E9
:1021A000FEB50600370078370024FC6000F04AFBDB
:1021B0000190202530680068000717D584480090FA
:1021C000019B00222904300000F048F800280DD0BF
:1021D000EFF31080012181F3108831680A688023B1
:1021E0009A430A6080F310887D6026E030680068BA
:1021F000400725D576480090019B002269043000F5
:1022000000F02CF800281BD0EFF31080012181F39F
:10221000108831680A68874B13400B6080F3108880
:10222000EFF31080012181F3108831688A6801235F
:102230009A438A6080F31088BD603C700320FEBD25
:102240007D60BD60346674663C700020FEBD000099
:10225000F0FF000000FDFFFF00FD0F00FEB580272E
:102260003F01082400250600019168460270029390
:102270003068C069019901400198814201D1012073
:1022800000E0002069460978884231D10898002191
:10229000C9438842ECD000F0D5FA0299401A089957
:1022A000814201D3002901D10320FEBD30680068BE
:1022B0004007DDD53068C0692040306803D1C0696F
:1022C0003840D5D009E00462300000F083F83000D7
:1022D0007830C46005700120FEBD306807623000B0
:1022E00000F078F8300078302021C1600570DBE71D
:1022F0000020FEBD70B54165010058310A804A805A
:1023000000230B618668FF2480225201964204D18B
:102310000569002D11D1484C0FE07F25002E03D117
:102320000669002E06D108E01404A64207D104690C
:10233000002C01D18D8003E03F248C8000E08B8055
:10234000CB6222238B62EFF31083012484F3108885
:102350000468A56801262E43A66083F3108883686D
:1023600093420DD10269002A0AD1344A0A61EFF37F
:102370001081012282F310880068026820231BE08C
:102380002F4A0A6101690029F1D0EFF3108101227F
:1023900082F310880068026890235B00EFE700007A
:1023A000FFFFFDFFFFFFFEFFFFFFFBFFFF7FFFFFC4
:1023B000FFEFFFFFFFDFFFFF1343036081F3108890
:1023C000002070BDFFFFEFFFFFFF9FFFFFFFF7FF44
:1023D000FFFFFF0110B5EFF31081012282F3108897
:1023E00002681368134C1C40146081F31088EFF3EB
:1023F0001081012282F31088026893680124A343AC
:10240000936081F31088016E01290BD1EFF31081E5
:10241000012282F31088026813681024A34313601A
:1024200081F310882021802281500021016681667D
:1024300010BD0000DFFEFFFFFF010000A725000820
:102440000325000880B5806A0100523100220A810C
:102450000A8000F084FB01BD10B5806A0100603184
:1024600000220B699A634B69002B02D09B6B002BF7
:102470000ED10300523300241C801C814A620F23BA
:10248000046823622023CB610B620A6000F065FBC5
:1024900010BD38B5806A0100603100224B699A6333
:1024A0000B69002B02D09B6B002B13D1030052331E
:1024B00000241C801C814A620F2304682362036885
:1024C0009C69082525439D612023CB610B620A602E
:1024D00000F043FB31BD10B5806A002100225A2371
:1024E000C2520F2203681A620268936908241C43CF
:1024F00094610200603220231362116000F02EFB11
:1025000010BD70B50100583102688B6A222B44D18E
:10251000526A8B881340426D1370426D521C4265A3
:102520004A88521E4A804A88002A3AD1EFF3108224
:10253000012383F3108803681C68444D25401D6007
:1025400082F31088EFF31082012383F3108803686D
:102550009C680125AC439C6082F3108820228A622B
:1025600000220A61CA600368394CA3420ED05B683E
:102570001B020BD5EFF31083012484F31088046849
:102580002568344E2E40266083F310888B68012B1B
:1025900000D161E000F030FE70BD90690821014378
:1025A000916170BD000070B50100583102688B6AFE
:1025B000222B44D1526A8B881340426D1380426DA6
:1025C000921C42654A88521E4A804A88002A3AD1A3
:1025D000EFF31082012383F3108803681C681B4DFE
:1025E00025401D6082F31088EFF31082012383F3EE
:1025F000108803689C680125AC439C6082F31088B6
:1026000020228A6200220A61CA600368104CA34239
:102610000ED05B681B020BD5EFF31083012484F30B
:102620001088046825680B4E2E40266083F31088BE
:102630008B68012B00D10FE000F0DEFD70BD9069CA
:1026400008210143916170BD00000000DFFEFFFF23
:1026500000480040FFFFFFFB8A60EFF3108101227A
:1026600082F31088026813681024A343136081F377
:10267000108801681022CB69134000D00A625821EB
:10268000415A00F06DFA70BD80B562486249016040
:10269000E1214902416000218160C16001610C2299
:1026A0004261816115E080B55C485D490160962119
:1026B000890105E080B55B485B490160E121490281
:1026C000416000218160C16001610C224261816131
:1026D000C16101624162FFF78BF8002801D000F070
:1026E000BDFE01BDF8B586B0040014220021684685
:1026F00000F0B6FE25680320042102224B4B002483
:10270000454EB54215D1DD680E042E43DE601D68CE
:102710000D431D601B6819400591059981020091C8
:1027200001920294039004946946414800F0A2FE8D
:1027300041E001263A4FBD421CD19D680F032F4353
:102740009F601D6835431D601B681E400596059BF4
:102750004302009301920294039004916946A020E1
:10276000C00500F087FE002200211B2000F0FDFFC5
:102770001B201EE02C4FBD421DD1DD68CF032F432F
:10278000DF601D6835431D601B681E400596059B74
:102790000C23009301920294039004916946A020B7
:1027A000C00500F067FE002200211C2000F0DDFFC4
:1027B0001C2000F0DEFF07B0F0BD80B502681D49A7
:1027C0001548824209D148681B4A02404A60C0212C
:1027D0000901174800F018FF01BDA020C005104BEB
:1027E0009A4209D10A68154B13400B60C021C900F9
:1027F00000F00AFF1B200AE00B4B9A4209D14A68FD
:102800000F4B13404B600C2100F0FEFE1C2000F02B
:10281000B9FF01BD200C002000480040A80C00209A
:1028200000380140300D0020004400402C100240D0
:102830000008005034100240FFFFFBFFFFBFFFFF06
:10284000FFFFFDFF01484068704700BF0000002007
:1028500070B5040001D1012070BD206836494018D0
:102860001421FEF711FE80006064344820640220C9
:10287000252160542068006831490140A068084360
:10288000E16801432069084361690143A069084385
:10289000E1690143206A084321680860A06880213B
:1028A000C901884210D027481C2102680F23656C9B
:1028B0001C262E40B3409A43026002686368656C30
:1028C00029408B40134303600020E063012125224F
:1028D000A1542421605470BD70B5040001D10120C1
:1028E00070BD20680168012291430160206812498F
:1028F00040181421FEF7C8FD800060640F48206472
:102900000020216808601C210122636C0B409A4062
:10291000236C5A600B4A13680F25666C31408D405A
:10292000AB431360E06220636063A063E063252231
:10293000A0542421605470BDF8FFFDBF0000024088
:102940000F80FFFFA8000240F8B50400002000251A
:102950002426A65D012E01D10220F2BD01262427E6
:10296000E65502262527E75D012F1FD12527E655CD
:10297000E063206806680127BE430660200000F07F
:10298000D8F82068216B0029016801D00E2205E0EB
:10299000042291430160206801680A220A43026010
:1029A0002068016801220A43026002E02421605489
:1029B00002252800F2BD30B5010024310022252374
:1029C000C35C022B04D00423C3630A70012030BD12
:1029D00003681C680E25AC431C6003681C68012555
:1029E000AC431C6001234424045D1C2525400124C4
:1029F000AC40056C6C60252403550A70002030BD86
:102A000070B50022002401212523C35C022B03D0D2
:102A10000422C263012418E003681D680E26B54332
:102A20001D6003681D688D431D604423C35C1C2525
:102A30001D400123AB40056C6B602523C15424214C
:102A40004254816B002900D08847200070BDFEB53C
:102A5000016C0968029101680A6801924422825C53
:102A60001C2313406A46137004232022029C6D46E7
:102A70002D780426AE40264014D0019C1C4011D075
:102A80000C68224002D10A689A430A604421415CE2
:102A90001C220A409340016C4B60016B002947D017
:102AA0008847F7BD012302240025029EB4466E46E6
:102AB00036780227B7406646374019D0019E264037
:102AC00016D00E68324005D10A680A26B2430A6061
:102AD000252143544421415C1C220A409440016C4E
:102AE0004C6024214554C16A002921D08847F7BD94
:102AF000082264466E4636780827B740274017D02C
:102B0000019C224014D00A680E24A2430A6044218A
:102B1000415C1C220A4001219140026C5160C36358
:102B20002521435424214554416B002900D0884776
:102B3000F7BD70B501244425455D1C262E40B440E8
:102B4000056C6C60046863608068102802D1A26024
:102B5000E16070BDA160E26070BD70477047704772
:102B6000704770477047FEE7FEB5060058D0B74C77
:102B7000E0680C2101400091E06880214902084092
:102B800001903078C0070ED54F000098082804D077
:102B90000C286AD10198884267D12068074002D08A
:102BA000706800283CD0307880072BD5F068BB4F88
:102BB0000921C943009A042A05D00C2A01D1019A9F
:102BC000002A00D08CE02268520701D5002827D0C7
:102BD00062681740326912023A436260226811400B
:102BE0000843206000F0A2FAAD49E2681206120F15
:102BF000895CC840BC490860BC48006800F0FAFD28
:102C0000010031D1A70D3078C00600D4B4E000989F
:102C1000002800D091E02068800503D5B069002825
:102C200000D1A4E16068B2490140306A08436060A5
:102C300060680002000AF169090601436160012031
:102C4000316A490B491C8840C0039549E268120665
:102C5000120F895CC840A4490860A448006800F0CD
:102C6000C9FD010000D187E0FEBD7068884201D136
:102C7000206809E0A021C9028842206806D17900B5
:102C8000014321602068790801430AE0BA49014004
:102C90002160206879080840029002982068B749AE
:102CA00001402160706800280DD0FFF7CBFD0500C2
:102CB0002068384000D076E7FFF7C4FD401B652848
:102CC000F6D30320FEBDFFF7BDFD050020683840A8
:102CD00000D168E7FFF7B6FD401B6528F6D3F0E7A3
:102CE00004220192002817D0226811400843206076
:102CF000FFF7A8FD050020680199014005D1FFF705
:102D0000A1FD401B0228F6D9DBE760680740306967
:102D100000023843606075E7206801218843206025
:102D2000FFF790FD0500206801990140F3D0FFF7FF
:102D300089FD401B0228F6D9C3E7B0690028206846
:102D400030D038432060FFF77DFD05002068800506
:102D500005D4FFF777FD401B0228F7D9B1E760687B
:102D600063490140306A0843606060680002000AFD
:102D7000F1690906014361603078000730D5706958
:102D80000028206D1DD0012101432165FFF75AFD68
:102D90000500206D800723D4FFF754FD401B022857
:102DA000F7D98EE7764901402160FFF74BFD05001A
:102DB00020688005E0D5FFF745FD401B0228F7D9C4
:102DC0007FE7012188432065FFF73CFD0500206D6A
:102DD000800705D5FFF736FD401B0228F7D970E7BD
:102DE0003078400765D5002001903805A16B01407F
:102DF00004D1A16B0843A0630120019061480068E1
:102E0000384011D15F48006838435E490860FFF7D9
:102E100019FD05005B480068384005D1FFF712FD39
:102E2000401B6528F6D34CE7B168B9420AD0564832
:102E300000290DD0A022D200914209D1206D210D90
:102E400001432165206D0743276508E0001002401B
:102E5000216D4B4A0A402265216D08402065670DAF
:102E6000B06800280CD0FFF7EDFC0500206D38405D
:102E700018D1FFF7E7FC401BA8498842F6D320E7AA
:102E8000FFF7E0FC0500206D38400BD0FFF7DAFCBF
:102E9000401BA2498842F6D313E700BFFFE0FFFFC3
:102EA000387500080198002803D0A06B9C490140A8
:102EB000A163706A00285CD000990C2942D0802759
:102EC000BF049849022820682ED101402160FFF7F5
:102ED000B9FC0500206838400CD0FFF7B3FC401B5C
:102EE0000228F7D9EDE600BF0C0000200800002002
:102EF000FF1FFFFFE0688C490140B06A0843F16A98
:102F00000143306B0843E060206879080143216089
:102F1000FFF798FC0500206838402AD1FFF792FCA3
:102F2000401B0228F7D9CCE601402160FFF78AFC5C
:102F30000500206838401CD0FFF784FC401B0228A5
:102F4000F7D9BEE6012812D0E0688021490201408D
:102F5000B26A91420BD1F02189030140F26A914299
:102F600005D1C02109040140306B814201D001200C
:102F7000FEBD0020FEBD00BFFFFFFEFFFFFFFBFF09
:102F8000FFFEFFFF00700040FFFBFFFFF1B582B0C6
:102F900000285CD00091614F85480068C107C90FC7
:102FA0000098814217D2824C206801218843009901
:102FB00001432160FFF746FC009D06002068C10721
:102FC000C90FA94206D0FFF73DFC801BB842F5D3DC
:102FD0000320FEBD00957C4C02980078800706D542
:102FE000E068F0218843029989680143E1603E4628
:102FF00002980078C0074DD502984068022819D180
:103000002168890323D5E168032291430843E060E6
:10301000FFF718FC0700029840680C25022818D119
:10302000E0682840082835D0FFF70CFCC01BB042F0
:10303000F6D3CDE7032802D12168890103E00128F6
:10304000216802D14907DED401E08905DBD40120E3
:10305000FEBD032809D1E06828400C281AD0FFF7EC
:10306000F1FBC01BB042F6D3B2E7012809D1E068FA
:10307000284004280ED0FFF7E5FBC01BB042F6D372
:10308000A6E7E068284005D0FFF7DCFBC01BB04294
:103090009ED2F6E7009846490968CA07D20F9042C7
:1030A00015D2434D286801218843009901432960C6
:1030B000FFF7C8FB07002868C107C90F00988142C5
:1030C00005D0FFF7BFFBC01BB042F4D380E70298E6
:1030D0000078400706D5E0683C4901400298C06886
:1030E0000843E06002980078000707D5E068384997
:1030F000014002980069C0000843E06000F016F843
:103100003449E2681206120F895CC84032490860EF
:103110003248006800F06EFBFEBD0000891300001D
:10312000FFFFFFEFFFFFFFFEFFFF02FF50B5264A44
:10313000D16810230C200840042804D0082809D0A6
:103140000C2809D023E01068034001D0254850BD69
:10315000254850BD254850BD25488C02240F005DF0
:1031600009028C0F641C0021D668F60301D51F4AA2
:1031700003E01268134002D01A4A002300E01A4A02
:1031800000F05AFB22000023FEF7E1FA50BD506820
:1031900001210004400F401C8140C80350BD0E486F
:1031A000006814490E4A1268520509E00000000048
:1031B00000200240084800680E49094A126892043B
:1031C000520F895CC840704700100240FFF8FFFFB3
:1031D000FFC7FFFF387500080C0000200800002022
:1031E0000C10024000093D000024F40000127A0097
:1031F00048750008B875000880B5802292005D49C6
:103200005D480068FEF7B7FB01BD10B501005A4CE0
:1032100020001022FDF760FF0122A06881B26068E3
:1032200000F064FA012010BD30B585B002000D0039
:10323000514C200011001022FDF74EFF6068A1687C
:10324000227B012D1ED189B200F050FA24682000A3
:10325000FEF704FBFFF727FA642000F007FB206865
:103260000021C9430162816801220A43826001682A
:1032700010220A430260802292003E492000FEF79D
:103280007AFB1AE0521E9241D20F89B200F02EFA58
:103290002068FEF7E3FAC024E400A025ED05002233
:1032A0002100280000F022FA0094002001900290F2
:1032B00003906946280000F0DDF805B030BDF8B590
:1032C0000400FFF7BFFA00262B4D00940700FFF71C
:1032D000B9FAC01B0099884231D2287C0028F6D068
:1032E0002C682000583040885821615A081A80B252
:1032F000032815DD1F4880781E4949781D4A127839
:1033000052181218D2B21B4BDB789A4208D109022C
:103310000843012801DB012100E000216861697494
:103320002000FEF75BFB8022920012492000FEF78E
:1033300022FB687C00282E74C9D06869F2BD002089
:10334000C043F2BD70B50C4D2E6830681F24C169B2
:1033500021400ED0C069C00605D4802292000549E4
:103360003000FEF708FB3068016A0C43046201205C
:10337000287470BD200900201411002080B500F0D1
:1033800089FA00F01BF800F099FA00F021FBFFF732
:103390008AF9FFF78FF9FFF777F900F039FB00F0B2
:1033A00001FC00F05BFC00F071FC00F0A9FC00F0F7
:1033B000DDFC00F03DFD00F03FFEFCE718B599B0E4
:1033C00034210CA800F0EAFE1421684600F0E6FE65
:1033D0001C2105A800F0E2FE1E4801681E4A0A40B2
:1033E000C10C114301600A200C9001200F901021A4
:1033F000109111900220159000241694400417900B
:10340000000118900CA8FFF7AFFB002801D000F0D6
:1034100025F80F2000900320019002940394049457
:1034200001216846FFF7B2FD002801D000F016F830
:103430002720059007940894099480208002069024
:1034400005A800F0B3FE002801D000F007F81AB07C
:1034500010BD000000700040FFE7FFFF72B6FEE7FE
:1034600010B50400080011000200200000F098FED2
:10347000200010BDFFB500220F2302932DE006248B
:1034800003E0A34CA042FAD105246D462D78AC4050
:103490003443019D2C609F4CA668DC4326404D6858
:1034A000ED0200D51E439B4DAE60EE6826404F688E
:1034B000BF0200D51E43EE606E6826404F68BF0312
:1034C00000D51E436E602E6834404E68F60302D568
:1034D00026001C0034432C60521C0B681C00D44096
:1034E00000D190E0012494402340F5D055000327FB
:1034F000AF40FE4301964E68B707BF0F012F03D0C0
:10350000B607B60F022E0ED18768019E3E40CF68E7
:10351000AF40374387604668A6434C68E706FF0F15
:1035200097403743476094006E4674700C79A40747
:10353000A40F032C26D0C468019E26408C68AC40A2
:103540003443C4600C79A407A40F022C1AD1D40808
:10355000A4000419266A03966E4677781C263E401E
:103560006F463E70039EB446029F6E463678B74063
:103570006646BE43B4460F696E463678B740664627
:103580003743276207680324019E3E404F68274067
:10359000BC462F006546BD40354305604D68260496
:1035A0002E4099D001255C4E36682E435A4F3E601E
:1035B0005A4E9708BF00F6190196019E3668039689
:1035C0006E4677780C263E406F463E70039EB446AA
:1035D000029F6E463678B7406646BE43A027FF0579
:1035E000B84201D1002450E74D4FB84201D1012427
:1035F0004BE74C4DA84201D1022446E74A4DA84270
:1036000000D03EE741E7FFBDFFB50323029301234E
:103610000193039100213EE0062703E03C4DA842C0
:10362000FAD105278D00B4460C262E40B740BC4584
:1036300015D1D643374A12683240364F3A603A467F
:10364000526832407A603A46D2683240FA603A466E
:10365000926816403A4696601A68A2431A60029A27
:103660004B009A40036813430360CB089B00C318C8
:103670001C6A0F261C272F40BE40B4431C62D34354
:10368000C2681A40C2604268009CA24342608268DD
:1036900013408360491C039ACA4026D0019A8A408D
:1036A0000092039B009A1A40F4D01C4B8C08A40093
:1036B0001B191E680F248D000C272F40BC4026408C
:1036C000A025ED05A84201D10027ABE7144DA84283
:1036D00001D1019FA6E7134DA84201D10227A1E71E
:1036E000114DA8429AD1029F9CE7FFBD002A01D04C
:1036F000816170478162704701000C4A13680B407A
:1037000000D1704780B5116000F01AFE01BD0000C5
:10371000001C005000040140341002400800014029
:103720000004005000080050000C00501404014038
:1037300010B5C20018231340FF249C40E2438907C0
:10374000090E9940030004D423489B089B00C0182D
:1037500006E0224B0007000F083880088000181888
:1037600003681A401143016010BD80B5FFF7E0FF08
:1037700001BD010005D40121C006C00E81401848DA
:1037800001607047010009D40121C006C00E8140CC
:1037900014480160BFF34F8FBFF36F8F7047BFF3C3
:1037A0004F8F114811490860BFF34F8F00BFFDE7ED
:1037B00010B5401E80214904884201D3012010BD6C
:1037C0000B4C606003210020C043FFF7B1FF0020D5
:1037D000A0600721216010BD00E400E01CED00E0C6
:1037E00000E100E080E100E00400FA050CED00E0FB
:1037F00010E000E038B505000D4CFA20800021787B
:10380000FDF742FE01000B480068FDF73DFEFFF7A3
:10381000CFFF00280AD1042D08D200222900002061
:10382000C043FFF7A2FFA560002032BD012032BDDA
:10383000000000200C00002030B4434351435D18C9
:10384000010C0C00130C5C432D1980B2434392B25F
:1038500051430024C918644124040B04090C0919BC
:103860005043C018694130BC7047FEE738B50500C9
:10387000FEF7E8FF04000020C043854202D0044860
:1038800000782D18FEF7DEFF001BA842FAD331BDE9
:103890000000002010B500240748016840220A43B8
:1038A00002600320FFF7A6FF002801D0012401E0F9
:1038B00000F048FD200010BD00200240F8B586B0A1
:1038C000142200216846FFF7CBFD04263948016821
:1038D00031430160016831400591059980210268FA
:1038E0000A430260026811400591059901240168AC
:1038F0002143016001682140059105990221026878
:103900000A43026000680140059105982A4D002293
:1039100029002A48FFF7EAFE00222949A020C00515
:10392000FFF7E4FE274F002239002748FFF7DEFEAD
:103930000095019400250295039569461F48FFF7FD
:1039400099FD702000900194029503200390694630
:10395000A020C005FFF78EFD009701940295039506
:1039600069461948FFF786FD0096882040030190BC
:10397000029569461448FFF77DFD144800900195B3
:10398000029569461048FFF775FD882040010090B8
:103990000194029503956946A020C005FFF76AFDD2
:1039A000002200210620FFF7E0FE0620FFF7E1FEDF
:1039B00007B0F0BD2C10024041020000000800508A
:1039C0007011000051700000000400508880000059
:1039D00080B501200D490A6802430A600968084061
:1039E00000900098002202210920FFF7BEFE092066
:1039F000FFF7BFFE01BD80B5044801680122914375
:103A000001600920FFF7BEFE01BD0000301002403A
:103A10001CB5082200216846FFF722FD554C564888
:103A200020600020E0638021C9056160A06007215B
:103A3000A16301212161E0602023E1542123E054AE
:103A4000A062FF22C23262622C22A154082161616D
:103A50002063A0616063E061200000F089FC002821
:103A600001D0FFF7FBFC4548009080204001019009
:103A70006946200000F0B2FE002801D0FFF7EEFCFE
:103A80003F4800906946200000F0A8FE002801D0C1
:103A9000FFF7E4FC3B4800906946200000F09EFEE2
:103AA000002801D0FFF7DAFC374800906946200073
:103AB00000F094FE002801D0FFF7D0FC13BD70B5D4
:103AC00086B004001422002101A8FFF7C9FC206879
:103AD0002949884236D12D488168420D0A438260C7
:103AE000042102680A4302600068014000910098C6
:103AF00032200190032002900025039501A924485B
:103B0000FFF7B8FC234E244830607560B560F5605F
:103B100080203061803070618000B0612020F061D1
:103B200035623000FEF794FE002801D0FFF796FCC6
:103B3000E664B462002201210C20FFF716FE0C207F
:103B4000FFF717FE06B070BD10B5040020680A49E3
:103B500088420ED111480168114A0A4002603221A0
:103B60000B48FFF751FDE06CFEF7B6FE0C20FFF7A7
:103B700009FE10BD380E0020002401400008002C72
:103B8000004000380080003C000002442C1002403D
:103B900000080050E80E00200800024034100240E7
:103BA000FFFDFFFF10B5284C2848206028486060C2
:103BB0000020A0600121E16020616061A061E061FE
:103BC0002062200000F05CFF002801D0FFF746FCD7
:103BD0000021200000F0AEFF002801D0FFF73EFCDE
:103BE0000021200000F0C3FF002801D0FFF736FCC1
:103BF00010BD10B586B004001422002101A8FFF703
:103C00002FFC2068114988421CD10220114C2168E8
:103C1000014321602168084000900098C020000105
:103C200001901220029001200390032004900620AE
:103C3000059001A90848FFF71DFCE0688021C90331
:103C40000143E16006B010BD940E00200058004012
:103C5000BB7C70002C1002400004005080B5084866
:103C600008490160062141600749C16080210901BE
:103C7000816000F0A5FF002801D0FFF7EFFB01BD38
:103C80004011002000300040FF0F000010B5194C1B
:103C900019482060002060607F21A160A131E160AF
:103CA00020616061A061E061200000F0BFFF00289A
:103CB00001D0FFF7D3FB04220A21200001F0B0F865
:103CC000002801D0FFF7CAFB10BD00680A498842EE
:103CD00000D0704780B5094801688022D2020A43AB
:103CE0000260002200210220FFF73FFD0220FFF7C3
:103CF00040FD01BD3410002000280040501002405B
:103D000038B586B01022002102A8FFF7A9FB0822CF
:103D100000216846FFF7A4FB3F4C8020C0052060CF
:103D20001F2060600025A5603C48E060256165615A
:103D3000200001F017F9002801D0FFF78FFB802049
:103D40004001029002A9200001F00FFA002801D0E2
:103D5000FFF784FB009501956946200001F0D6FA33
:103D6000002801D0FFF77AFB07B030BD3EB508222E
:103D700000216846FFF774FB294C2A482060202068
:103D800060600025A5602848E0606561200001F0C2
:103D9000E9F8002801D0FFF761FB0095019569461D
:103DA000200001F0B3FA002801D0FFF757FB37BD20
:103DB00080B500681D498022D205904204D1086870
:103DC000012202430A6001BD164A90420BD10868E5
:103DD000102202430A60002200211120FFF7C5FCD7
:103DE0001120FFF7C6FC01BD80B500680F49802295
:103DF000D205904204D1086801229043086001BDB9
:103E0000084A904206D108681022904308601120A9
:103E1000FFF7B8FC01BD0000300F0020FFFF0000DD
:103E2000700F002000100040E7030000381002402F
:103E3000F8B5FA204000FFF719FDA54C77A3D3226F
:103E4000520000BF9EA1601D01F08EFA601DFDF7BB
:103E50002FF900BF76A29649631D181801F084FA65
:103E6000611D002001F0A0FA01F0D0FA914801F0A4
:103E7000B0F800F001F9904C90482518A020C0053A
:103E8000E862A86268621021A9632020686340226A
:103E90002A639048904BE3185860A020C0058E4BD1
:103EA000E318986008018C4BE318D86001268A4B10
:103EB000E3181E740020884FE7197874874BEB6372
:103EC000A8822862A861E861854B6B60AE602E73A2
:103ED000A023DB05804FE7197B610B027E4FE719BA
:103EE000BB617D4FE719F8612E707E4BE7187E4B62
:103EF000BB60B961FB600821F961794939603A61B9
:103F00007B6051027961744AA2185670724AA654B5
:103F1000764F77493960BB60310379614900B961F7
:103F20002322BE546E497960710239612122BE5448
:103F30002022BE542222BE542322BE54242178546F
:103F400080A1200001F010FA81A12000303001F0A2
:103F50000BFA6848C10960501E20C43160506648A1
:103F6000221800BF7EA19A204000201801F0FCF921
:103F700074A190208000201801F0F6F97AA1BD20EC
:103F80008000201801F0F0F97AA1DD2080002018CF
:103F900001F0EAF97AA19C208000201801F0E4F9F0
:103FA0001520BC218900605079A15448201801F0E7
:103FB000DBF953A1FD208000201801F0D5F938006D
:103FC00001F0EAFA9B20C000201801F0BFFB9E2000
:103FD000C0002718380001F00FFC0021380001F064
:103FE00012FC01219520C000201801F0D5FC002111
:103FF0009720C000201801F019FD00219320C00077
:104000002018FFF711F9002001F00BFB01F0BAFFB7
:1040100002F054F801F0C4FF2E74F1BD50726550E7
:10402000726F636573736F7250726F63000000008C
:1040300076352E330000000080B5324800683249E2
:104040009622920082180A62962252008018886195
:1040500000F008F802F088F901F0CCFF01F074FDDF
:1040600001BD000080B5294800F0D5FD01BD80B537
:10407000FFF795FB01BD000038B502F0FFFA05001F
:1040800020480560124C00BF21A3B82226A1601D64
:1040900001F06AF9601DFDF70BF82A0026A1631DE7
:1040A000181801F061F9611D022001F07DF931BDA0
:1040B0009C740008700F002074010020B4040000FC
:1040C0005B7C25642D25737C3A696E666F5D00000C
:1040D000200B0020A80C002094040000380E0020C3
:1040E0000008005074040000000400500C10002070
:1040F000300D00207F9800005505000034040000BA
:104100002F000000A0100020B00F00204011002060
:1041100055737253797374656D5570646174655429
:104120007356616C756573005B7C25642D25737C0B
:104130003A6572726F725D005374617274207473A9
:104140003A256400696E7465726E65740000000043
:1041500039352E37302E3230312E393600000000FE
:1041600025732D6765736B006C617272796674706C
:10417000000000006765736B3230313700000000CB
:104180003135392E36352E3131322E31353400006D
:10419000746573742E74787400000000002200BFF0
:1041A000094202D0491E4254FCD17047FEB50400BA
:1041B00000200190584D207880067DD58020400554
:1041C000A96B014004D1A96B0843A86301200190A9
:1041D000AF0D52480068384013D150480090006835
:1041E000384300990860FEF72DFB06000098006830
:1041F000384006D1FEF726FB801B6528F6D3032046
:10420000FEBD29686068C02292030A40C02189036C
:1042100001408A420BD0C02189020140C022920293
:10422000914204D12968890301D50120FEBD2A6D80
:10423000C0218902114022D0C02292020240914244
:104240001DD02078800630D5296D35480840296D6D
:10425000FA020A432A65296D324A0A402A6528650E
:1042600007400CD0FEF7EEFA0600286D800506D454
:10427000FEF7E8FA801B2C498842F6D3BFE7207886
:10428000800612D56168C020800202000A40824286
:1042900006D12A68254B134002010A401A432A60BE
:1042A000296D62681040084328650198002803D0F2
:1042B000A86B1F490140A9632078C00705D5E86CA9
:1042C00003218843A1680143E9642078800705D56C
:1042D000E86C0C218843E1680143E96420784007D9
:1042E00005D5E86C1349014020690843E86420784B
:1042F000000705D5E86C1049014060690843E8648F
:104300002078000605D5E86C0C490140A0690843F7
:10431000E8640020FEBD0000001002400070004074
:10432000FFFFFCFFFFFFF7FF89130000FFFFCFFF38
:10433000FFFFFFEFFFF3FFFFFFCFFFFFFFFFF3FFE5
:104340007047FEE780B50948016801220A43026010
:104350004168802252050A43426000220021042065
:10436000FFF703FA0420FFF704FA01BD34100240FE
:10437000F8B5040016D025005035002668680028DE
:1043800004D1AE602E702000FFF799FB1020696801
:10439000014003D121688A68520705D5696808433E
:1043A00068602E700120F2BD6868864A02400220D3
:1043B0001043686084488A689207920F012A03D1EB
:1043C0000A461268D2072AD46268804BC0273F068B
:1043D000BA4206D05F1CBA4203D080273F06BA42D9
:1043E00008D10A6913400B6121680A6963681343A5
:1043F0000B610AE00A6913400B610168744A0A40C4
:104400000260016862680A4302602168CA68182372
:104410009A43CA602168CA68A3681343CB600168E5
:104420006C4A0A4002600168626B52060A430260ED
:1044300020688021490582680A4002D182681143C0
:1044400081602068C168644A0A40C260206902280D
:1044500001D1042100E000212068C268E368134311
:1044600019432022A25C52030A432C21615C4900BB
:104470001143226B0A43A16989031143E269D20304
:104480000A43C260606AFF21C231884205D02168B8
:10449000CA681043A26A0243CA6001202121615CFC
:1044A000012910D12021615C002905D12168CA6849
:1044B00003041343CB6006E0696820220A436A6064
:1044C000A9680143A960E16B012921680A690FD13C
:1044D000424B13400B6121680A69236C1343626CE1
:1044E0001A43A36C13430B6121680A69024303E07A
:1044F000024002D00A6982430A6121684A6907239F
:104500009A434A6121684A69A36B13434B61AE60C9
:10451000696802229143084368600020F2BDF8B543
:10452000040001D10120F2BD270050377868022134
:1045300001437960200000F00DFA050000262800F4
:1045400008D1200000F0D2F90500012836D0012062
:10455000786001E0012D31D020684168204A0A408E
:104560004260204821680860206881681E4A0A402D
:1045700082602068C1681D4A0A40C26020680169E3
:104580001B4A0A4002612068416907229143416148
:104590002068016A174A0A4002622168B4317F200C
:1045A000C0430A6802400A602168B4310A681040BA
:1045B00008602000FFF7C8FABE607E603E702800E9
:1045C000F2BD0000FFFEFFFF08270140FFFFFF3F95
:1045D000FFFFC3FFFFFFFFFD1902FEFF03FCFFFF0C
:1045E00060F7FFFF9F080000FFFFFFEF00023E8320
:1045F00002FCFF3F00F000F0F2B5050017000026B6
:1046000000242868816849073CD45021695C01294D
:1046100001D10220F2BD01215023E954C2681143A7
:10462000C160E869012804D0280000F031F90400D5
:1046300029D13B00009A2800503047689049394002
:1046400080277F000F434760866006708D48E96CC5
:10465000C8628D48E96C08638C48E96C48631C208B
:10466000296808602868416810260E43466029685A
:104670004031E86CFEF768F92868816804220A4333
:10468000826000E002242000F2BDF8B50400502052
:10469000205C012801D10220F2BD270050370125FE
:1046A0003D70200000F056F9060021D12068C16855
:1046B000A943C160E06C2521415C022907D1FEF7C6
:1046C0007AF9060003D078684021014379602068B8
:1046D000416810229143416030000DD1200000F06C
:1046E00005F9060004D17868054901400D437D6055
:1046F000002038703000F2BD200000F0F7F8F7E736
:10470000FFFEFFFFF8B5040020680568476808222F
:1047100008202840102604210D4201D00F4203D169
:10472000002836D03A4034D0626D324003D1626DF9
:10473000CB01134363652268D268C0231B01134079
:104740001ED12022A25C002A1AD1002818D020688D
:10475000806801400CD1206840680C2188432168A2
:104760004860606D6049014001200843606507E0D2
:10477000606D202101436165A06D01210143A165A8
:10478000200001F0FEFFA069012802D00C20216862
:10479000086028060BD5380609D5606D3103014342
:1047A0006165200002F030F8802021680860354003
:1047B00013D0374011D0206B002803D02068C06888
:1047C000C00708D5A06D02210143A16520680660DD
:1047D000200002F01AF820680660F1BDFEB55022F4
:1047E000825C012A01D10220FEBD07005037012260
:1047F0003A70006800248268520706D57868202144
:10480000014379603C700120FEBD009109684903B5
:10481000490B01918025AD02914E6900009A5268C2
:10482000904B9A42826A019B15D013438362009891
:104830000068014006D03068A901014331600A20B8
:1048400000F0FCF800980068054016D03068802120
:10485000C903014310E09A43826200980068014056
:1048600003D03068804901403160009800680540FD
:1048700003D030687D49014031603C700020FEBDAE
:10488000FEF1FFFFAD490008194A0008234A00085D
:10489000F8B50600306881688907890F012903D1BE
:1048A00001460968C9071CD4102401258168704A93
:1048B0000A4015D1816829438160012000F0BEF8CB
:1048C000FDF7C0FF070030680068284009D1FDF7F8
:1048D000B9FFC01B0B28F6D3306800682840F2D11E
:1048E00030E00020F2BD0000FFFEFFFFF8B506003B
:1048F0003068032182680A40012A21D102461268E9
:10490000D2071DD510240125826805231340012BF1
:1049100015D1826802231343836030680160FDF77C
:1049200091FF070030688068284009D0FDF78AFFB2
:10493000C01B0B28F6D3306880682840F2D001E015
:104940000020F2BD706D04437465B06D0543B5651C
:104950000120F2BDF8B505002868042781683940B8
:1049600022D010248168394005D08168890702D49B
:10497000816821438160FDF765FF06002868806833
:10498000384011D0FDF75EFF801B0B28F6D3286856
:1049900080683840F2D0686D04436C65A86D0121D1
:1049A0000143A9650120F2BD0020F2BD10B5816A66
:1049B0004A6D502313402BD1486D80229200024350
:1049C0004A650868C268C0231B0113401CD120221D
:1049D0008A5C002A18D10A681268120714D50122CD
:1049E00083685B0709D443680C24A3434360486D84
:1049F000204B03401A434A6506E0486D20230343D9
:104A00004B65886D02438A65080001F0BAFE10BD4F
:104A1000C96C496B884710BD80B5806A01F0F6FE0D
:104A200001BD80B5806A416D40220A434265816DB7
:104A300004220A43826501F0E8FE01BD18B50400B6
:104A40000D4800680D49FCF71FFD4443009402E047
:104A50000098401E009000980028F9D111BD000078
:104A60000827014001100000FFFF7FFFFFFFBFFF8D
:104A700017000080FFFEFFFF0C00002040420F00E7
:104A800070B5040001D1012070BD2500403500261D
:104A90006878002803D12E702000FFF7AAF82420A0
:104AA00068702068016801229143016060681E49B6
:104AB00001402068016121681C488A6802408A60C0
:104AC000E1680129A16801D1C24301E084221202F8
:104AD0000A4321688A60E168022903D18021090123
:104AE0002268516021684A68114B13434B6021686A
:104AF000CA681040C860206961690143A06900026A
:104B000008432168C860E069216A014320680160A8
:104B10002068016801220A4302606E6020206870EC
:104B20002663AE70002070BDFFFFFFF0FF7FFFFF28
:104B30000080000270B5020040325378202B14D15F
:104B40004023C35C012B10D0012313702424547024
:104B5000046825689D43256004682568164E2E402C
:104B600026600468256829431CE0022070BD70B5EA
:104B7000020040325378202B12D14023C35C012B1A
:104B80000ED00123137024245470046825689D43BB
:104B9000256004682568094E2E400902314301E072
:104BA000022070BD2160006801680B430360202073
:104BB00050700020107070BDFFEFFFFFFFF0FFFF8F
:104BC00070B5050001D1012070BD2868144901604D
:104BD0001449016069684160A9688160FDF732FE8F
:104BE000072406002868C16821400AD0FDF72AFE84
:104BF000801B2B28F6D32868C0682040F2D0032001
:104C000070BDE96802698A4201D0016101E006498C
:104C10000160002070BD04490068016000207047F9
:104C2000CCCC000055550000AAAA000038B50500FC
:104C300001D1012032BD00242120285C002804D1AC
:104C400020216C542800FFF740F8022021216854ED
:104C50002868C168C90637D4CA214162532029682F
:104C60004862280000F094F8010019D12868816892
:104C7000394A0A408260286881686A680A4329695B
:104C80001143AA690A438260E868296808612868B4
:104C90000169AA6812040A430261280000F0A0F822
:104CA00001000BD12968CA6C03239A43CA6429689E
:104CB000CA6CEB6913436A691A43CA64FF212A6804
:104CC0005162010004D100E0002001212122A954F9
:104CD00032BD10B50C000068816A61600169490449
:104CE000490CA16001681D4808408102890E2170AD
:104CF000010A6170A070800DE070002A0BD120784D
:104D000000F085F82070607800F081F86070A0787D
:104D100000F07DF8A070002010BD10B50C000068F8
:104D200041680F480840010CE170C104C90E617070
:104D3000A0700004400F2070002A0BD1E07800F032
:104D400066F8E070607800F062F86070A07800F0BB
:104D50005EF8A070002010BDBFFF8FFF7F7F7F0037
:104D60003FFFFF0038B504001B482168C860FDF70D
:104D700069FD05002068C068800607D4FDF762FD64
:104D8000401B16498842F5D3032032BD002032BDB6
:104D9000F8B50400002520684027C168394017D1C4
:104DA000C16880220A43C260FDF74CFD060009E09D
:104DB000FDF748FD801B0949884203D304202121C7
:104DC000605401252068C068384001D12800EFD028
:104DD0002800F2BD000000005F7F0100E903000031
:104DE00038B5040000252068C16880229143C16065
:104DF00020688068800608D42000FFF7B3FF0028F1
:104E000003D00420212160540125280032BD01096E
:104E10000A2251430007000F0818C0B27047FEE78E
:104E2000F7B50400FA27BF004B4800684009390075
:104E3000FCF72AFB784300902020205C012801D158
:104E40000220FEBD01202021605402202121605457
:104E5000CA20216848625320216848622068FF25E3
:104E600000268168490508D50099491E00910099DE
:104E7000002922D0C1684907F6D48168344A0A4023
:104E800082602068C16880221140324A0A43C260B1
:104E90003148006840093900FCF7F6FA7843009081
:104EA00020680199029A009B5B1E0093009B002BD7
:104EB00003D0C3685B07F6D508E02068456203208D
:104EC00021216054202026540320FEBD836807273B
:104ED000BB438360206883681A4382602068416115
:104EE000802040031D490A6802430A608A68104313
:104EF0008860206881688022D2010A43826020682D
:104F000081688022D2000A438260206845620120C5
:104F100021216054202026540020FEBD10B504003D
:104F2000802040030E4908602068816849040BD541
:104F3000C168490508D5C16880221140054A0A4365
:104F4000C260200001F022FC01202121605410BD2C
:104F5000FFFBFFFF7FFBFFFF0C0000200004014070
:104F60001404014010B5040001D1012010BD392006
:104F7000205C002804D1382160542000FEF718FF7F
:104F8000022039216054211D206800F057F90120CA
:104F90003E2160543A2160543B2160543C216054CE
:104FA0003D216054392100F04FF810B50400022073
:104FB000392160542068006A2049014005D12068E9
:104FC000006801218843216808602000FEF70CFF7B
:104FD00023E03921415C012901D0012070470221E1
:104FE0003922815402680121D3680B43D3600268DF
:104FF0008B079A4205D0124B9A4202D0114B9A422B
:1050000005D192685207520F062A04D0026812682E
:105010001143006801600020704700203E22A05428
:105020003A22A0543B22A0543C22A0543D22A0543A
:105030003922A0543821605410BD00001111000025
:1050400000080140001401406054002010BD000021
:10505000F8B504002068002502260169314015D00A
:10506000C168314012D00221C9430161012121767A
:105070008069800703D0200001F0C9FB05E0200013
:1050800001F0C6FB200001F0C4FB25762068042750
:105090000169394016D0C168394013D00421C94391
:1050A000016126768069C0218900014003D020007B
:1050B00001F0ADFB05E0200001F0AAFB200001F0AB
:1050C000A8FB2576206808260169314014D0C16804
:1050D000314011D00821C94301612776C06980079A
:1050E00003D0200001F093FB05E0200001F090FBCD
:1050F000200001F08EFB25762068102102690A400D
:1051000016D0C268114013D01021C9430161267620
:10511000C069C0218900014003D0200001F077FB65
:1051200005E0200001F074FB200001F072FB257601
:105130002068012102690A4008D0C268114005D0E8
:105140000121C9430161200001F024FB20684021B6
:1051500002690A4008D0C268114005D04021C94305
:105160000161200001F056FBF1BDF8B504000026F6
:10517000684606703820205C012801D10220F2BD6B
:105180002700383701253D7002203922A0542068BD
:105190008268294B13408360086802003FD01028C2
:1051A0003DD020283BD0302839D0402830D050285E
:1051B00020D0602825D0702806D02B03984235D007
:1051C0005B0098420AD02FE0CB684A688968206863
:1051D00000F086F820688168772208E0CB684A688A
:1051E0008968206800F07CF820688168AA030A4377
:1051F00082601BE0CA684968206800F046F85021C8
:105200000EE0CA684968206800F050F8602107E0A5
:10521000CA684968206800F038F8402100E00100C1
:10522000206800F055F801E06846057039202554E3
:105230003E7068460078F2BD8800FFFF70B50268D6
:105240002D4B2E4C8025ED05A84203D0A04201D065
:10525000984208D17026B24316004A683243A842E9
:1052600003D0A04201D0984203D1254B1340CA6815
:105270001A4380239A430B69134303608A68C2620E
:10528000096881620121416170BD30B5036A046A19
:105290000125AC4304628469F025AC43120122432A
:1052A00082610A2293431943016230BD30B5036A1B
:1052B0001024A34303628469036A124D254012033C
:1052C0002A438261A022934309011943016230BD40
:1052D000826870239A43114307220A438260704711
:1052E00030B58468084D254029430A43190211430B
:1052F000816030BD00000000001401400008014042
:10530000FFFCFFFFFF0FFFFFFF00FFFFF0B538229C
:10531000825C012A01D10220F0BD02003832012353
:10532000137002243925445505686E68AC687027EF
:10533000BE430F6837436F6005689E07B54205D0CE
:10534000074EB54202D0074EB54204D18026B44381
:1053500049682143A9603921435400201070F0BDF1
:1053600000080140001401400CB418B583B00400DB
:105370000A0006A8029001940020009002AB01A947
:10538000084878441E30FAF79FFE0021019A1170F8
:10539000002801D40198001B04B0019910BC03B08F
:1053A000084700BFBBBCFFFF70B504000D0028001C
:1053B000FBF77EFE801C411CFF2921D82100114CE7
:1053C0001A222270020A6270A070E170012020711E
:1053D000002604E0A85DA1194871761CB6B2280029
:1053E000FBF766FE8642F5D32800FBF761FE421DFF
:1053F00090B281000B1892B221000348FCF74EFADC
:1054000070BD0000200B0020200C002038B54C4C53
:10541000302221004B4800F09FF82F21200000F09F
:10542000A2F849490870494D2068A84206D12F21A9
:10543000200000F098F8217D88423BD025603C2078
:10544000A0804621E180FA21490021810A21A17230
:105450006421A1810521A1730321E173B42121827B
:105460006082002020757821A161012121773849CF
:1054700021622421605490212522A1545F212622FB
:10548000A1542721605440212822A15430212922EF
:10549000A1542A2160542B2160547F212C22A15435
:1054A0002D21605414202E21605402202F2160549D
:1054B00000F007F8208A2749884201DB481E208235
:1054C00031BDF8B58EB00020694608702F211C4808
:1054D00000F049F81A4908750E461A4F01F09CF978
:1054E00000250524E8190190725D0146002001F0B5
:1054F000B1F901980078715D884201D0641EF1D144
:105500006D1C302DEDDB01F09CF9302202A9380032
:1055100000F022F8307D02A9097D884208D0684653
:105520000078401C69460870684600780528D5DB7D
:1055300068460078052801D1FEF799FD0FB0F0BD4F
:10554000B00F0020000008083D110020DDCCBBAAF0
:10555000102700008503000080B503000800190033
:10556000FBF7D4FD01BD70B50200002300200DE063
:10557000145D5B1C0825260046404008F60702D54E
:1055800006008C20704064086D1EF4D19CB28C42E1
:10559000EED3C0B270BDFEE770B501004E4C2000E6
:1055A0002822FBF799FD25682868016810220A4324
:1055B0000260816801220A4382602800FCF70EFA2B
:1055C00080229200210034312800FCF7D4F9A5682C
:1055D0002120225C606981B22800FEF787F8A66965
:1055E0002020225CB1B22800FEF780F82320225C44
:1055F000E06981B22800FEF779F82420205C0028B9
:105600000AD0012808D02220205C421E9241D20FED
:10561000B1B22800FEF76AF8FA204000FEF726F93A
:1056200070BDF8B507008026760175002C090128A9
:1056300026D1FDF73FF8284F386800680021C9439C
:105640000162016810220A430260816801220A4354
:1056500082602248FCF759FA6200390034311F4851
:10566000FCF789F91E480460FA208000FEF7FEF876
:105670001C488561FA20FEF7F9F81A48866125E092
:105680001648FCF7EBF81648002F04D004601548C4
:105690008561866103E00461124885628662A02408
:1056A000E40500220421200000F03EF80022082139
:1056B000200000F039F80B4C00224021200000F0BF
:1056C00033F800228021200000F02EF8002269002B
:1056D000044800F029F8F1BDEC060020300D002050
:1056E000180800500004005038B50E480568002D19
:1056F00015D029681F24CA69224010D0C969C9067B
:1057000006D48022D200010034312800FCF733F99E
:105710002868016A0C43046201200149487031BDC8
:1057200090110020EC06002030B585B005000C007B
:10573000FDF7DCFF0094012001900020029003900F
:1057400069462800FDF796FE05B030BD10B5010092
:10575000274C20001822FBF7BFFC0022E06881B232
:105760002068FDF7C3FF0022206981B26068FDF761
:10577000BDFF0022606981B2A068FDF7B7FF01207C
:1057800010BDF1B51B4C402727612025256110264F
:10579000266127600098FEF769F82761C8277F0017
:1057A0003800FEF763F825600098FEF75FF8256182
:1057B0003800FEF75BF826600098FEF757F8266180
:1057C0003800FEF753F8F1BD70B50400094D4026CE
:1057D0002E6120202861102028612E602000FEF715
:1057E00045F82E612000FFE7FEF740F870BD00008D
:1057F000FC10002018000050574900680860012084
:1058000048718871704730B585B00068524A1060A1
:105810000124002926D15148FEF781FE504D514800
:1058200000780028224604D01021280000F0A2F8B9
:105830000DE010212800FDF759FF10200090019481
:1058400000200290039069462800FDF713FE012214
:105850002021280000F08EF800220221280000F00C
:1058600089F810E0FEF7D4F83F480168A1430160D1
:105870008021090602680A43026002680A40FCD1DE
:1058800001680C43046005B030BDF2B5324C00290C
:1058900008D0002806D02168016000983349102202
:1058A000FBF71AFC00202071042221000831206837
:1058B000FEF7A2FE00282CD120790028FCD0002081
:1058C000002100220023A479002C26D004240025E6
:1058D000274E6F00F6193788C019378CC919402731
:1058E000F75BD2196027F65B9B196D1C102DEFDB5F
:1058F0000004000D090912091B09641EE7D1009C70
:10590000208000984160009882600098C360012068
:10591000F2BD2068FEF7B9FE0020F2BD58B50E4C6E
:10592000216801600023E2791148510040185901B3
:105930005E00A619368946525B1C042BF4DB521C10
:10594000D0B2102805DB2068FEF79FFE0022012060
:105950002071E27151BD000050110020380E00206E
:10596000000800503E110020082401406011002072
:10597000B80D002030B585B005000C00FDF7B6FE6F
:105980000094002001900290039069462800FDF7E2
:1059900071FD05B030BDFEE7F0B585B002000D0029
:1059A0001A4F380011001022FBF796FB79688CB271
:1059B0003868002D0ED101253D7406003A7B89B26E
:1059C000FDF794FE0094019502950220039069462C
:1059D000300006E000213974009401910291039196
:1059E0006946FDF747FD05B0F0BD10B50100074C55
:1059F00020001022FBF770FB227B606881B22068D8
:105A0000FDF774FE0120207410BD00002C11002051
:105A100010B54A4C0EC80EC40C3C227A606881B2A4
:105A20002068FDF763FE0120207310BD78B585B0B6
:105A30000A00424B32C832C30C3B21468CB2186874
:105A4000002A07D10021197300940191029103915A
:105A500069460DE001251D7306001A7A89B2FDF72B
:105A600045FE00940195029502200390694630009E
:105A7000FDF700FD06B070BDFEB505002A4868437D
:105A800000F018FF0700280000F014FF010025486F
:105A900000F063FF0100380000F0B7FF234901F078
:105AA00007F801D2080004E0214901F015F800D8F8
:105AB000481E00271F4AF9005318596801F00CF8D6
:105AC00003D97F1C272FF6DB07E0050001F018F84B
:105AD00004D0181F06680C4600E00500F8001058B6
